:020000040800F2
:1000000000000220950200089D020008A1020008DD
:10001000A5020008A9020008AD02000800000000C7
:10002000000000000000000000000000B102000815
:10003000B502000800000000B90200082110000805
:10004000C1020008C1020008C1020008C102000884
:10005000C1020008C1020008C1020008C102000874
:10006000C1020008C1020008C1020008C102000864
:10007000C1020008C1020008C1020008C102000854
:10008000C1020008C1020008C1020008C102000844
:10009000C1020008C1020008C1020008C102000834
:1000A000C1020008C1020008C1020008C102000824
:1000B000C1020008C1020008C1020008C102000814
:1000C000C1020008C1020008C1020008C102000804
:1000D000C1020008C1020008C1020008C1020008F4
:1000E000C1020008C1020008C1020008C1020008E4
:1000F000C1020008C1020008C1020008C1020008D4
:10010000C1020008C1020008C1020008C1020008C3
:10011000C1020008C1020008C1020008C1020008B3
:10012000C1020008C1020008C1020008C1020008A3
:10013000C1020008C1020008C1020008C102000893
:10014000C1020008C1020008C1020008C102000883
:10015000C1020008C1020008C1020008C102000873
:10016000C1020008C1020008C1020008C102000863
:10017000C1020008C1020008C1020008000000001E
:10018000C1020008C102000800B583B0304B314AFB
:100190001360314A1360314B3149002201E01A608B
:1001A00004338B42FBD32B4B1B6813B92A4B1B68C0
:1001B00003B1FEE7264B2B4A13602B4A13602B4BEF
:1001C0002B4A2C4803E0116819600433043283423F
:1001D000F9D3244B1A68284B9A4204D1224B1A684F
:1001E0001B689A4200D0FEE700F052FF01A8694662
:1001F00000F040FE214B224EF61AB61000241D4698
:1002000003E055F8243098470134A642F9DC1D4B31
:100210001D4EF61AB61000241D4603E055F8243092
:1002200098470134A642F9DC0198009900F038FFA4
:100230000546164B164CE41AA4101E4603E0013C7A
:1002400056F824309847002CF9DC284600F0E4FDED
:10025000BABADECA780000201C0100207800002015
:100260002001002000000020740000200000002079
:10027000101B00087800002078563412C4020008D1
:10028000C4020008C4020008C4020008C402000836
:10029000C402000808B5FFF777FF00BFFEE700BF04
:1002A000FEE700BFFEE700BFFEE700BFFEE700BFBE
:1002B000FEE700BFFEE700BFFEE700BFFEE700BFAE
:0402C000FEE700BF96
:1002C400704700BF08B54FF47053C4F202031A68B4
:1002D40042F400721A601A6842F480621A601A6862
:1002E40042F480721A604FF47A5000F02BF8032025
:1002F40000F00AF8FFF7E4FF002008BD40F27C0399
:10030400C2F200031868704710B50446C31E042BDC
:1003140006D941F64C10C0F60000BA2100F0B0FD39
:1003240004F007044FF46D43CEF20003D9684FF68E
:10033400FF020A4042EA042242F0BF6242F4003261
:10034400DA6010BD0138B0F1807F10D24EF2100394
:10035400CEF2000358604FF46D42CEF20002F02159
:1003640082F823100020986007221A607047012049
:10037400704700BF70B506460C4615464B1E9BB22F
:10038400042918BF012B29D9082918BF102925D001
:10039400202918BF402921D0802918BFB1F5807FBA
:1003A4001CD0B1F5007F18BFB1F5806F16D0B1F540
:1003B400006F18BFB1F5805F10D0B1F5005F18BFB2
:1003C400B1F5804F0AD0B1F5004F07D041F6801047
:1003D400C0F600004FF4CB7100F052FD012D07D997
:1003E40041F68010C0F6000040F2971100F048FD7D
:1003F4000DB1348370BD748370BD00BF70B5044605
:1004040003680F2B07D941F6C010C0F600004FF463
:100414009D7100F035FD236813F0010F7CD06368F3
:10042400052B18BF012B07D941F6C010C0F60000F8
:1004340040F23F1100F024FD4FF46053C4F2020374
:100444009B6803F00C03042B10D04FF46053C4F2E8
:1004540002039B6803F00C03082B14D14FF4605380
:10046400C4F202035B6813F4800F0CD04FF46053A2
:10047400C4F202031B6813F4003F4DD06368012BE0
:1004840040F05F8248E043F60203C4F20203002214
:100494001A70FFF733FF00F59C5508354FF460568A
:1004A400C4F2020604E0FFF729FFA84280F04B8261
:1004B400336813F4003FF6D1227943F60203C4F201
:1004C40002031A706368012B13D1FFF717FF00F5BD
:1004D4009C5508354FF46056C4F2020604E0FFF759
:1004E4000DFFA84280F03182336813F4003FF6D048
:1004F40012E0FFF703FF00F59C5508354FF46056F2
:10050400C4F2020604E0FFF7F9FEA84280F01F825D
:10051400336813F4003FF6D1236813F0020F00F0A0
:100524008280E368012B07D941F6C010C0F60000B1
:1005340040F27F1100F0A4FC23691F2B07D941F678
:10054400C010C0F600004FF4C07100F099FC4FF4E5
:100554006053C4F202039B6813F00C0F10D04FF4E5
:100564006053C4F202039B6803F00C03082B14D1FC
:100574004FF46053C4F202035B6813F4800F0CD190
:100584004FF46053C4F202031B6813F0020F4AD005
:10059400E368012B40F0DD8145E0E36863B30023A9
:1005A400C4F2472301221A60FFF7A8FE00F1640693
:1005B4004FF46055C4F2020504E0FFF79FFEB04219
:1005C40080F0C9812B6813F0020FF6D04FF460530A
:1005D400C4F202031A6822F0F8022369F82191FA9E
:1005E400A1F1B1FA81F1C9B28B401A434FF46053BF
:1005F400C4F202031A6016E00023C4F24723002267
:100604001A60FFF77BFE00F164064FF46055C4F2F4
:10061400020504E0FFF772FEB04280F09E812B6871
:1006240013F0020FF6D1236813F0080F3DD063696D
:10063400012B07D941F6C010C0F600004FF4DC715D
:1006440000F01EFC6369C3B14FF46863C4F247232E
:1006540001221A60FFF752FE00F164064FF4605560
:10066400C4F2020504E0FFF749FEB04280F077814E
:100674006B6F13F0020FF6D017E04FF46863C4F207
:10068400472300221A60FFF739FE00F164064FF495
:100694006055C4F2020504E0FFF730FEB04280F07A
:1006A40060816B6F13F0020FF6D1236813F0040F0F
:1006B40077D0A368052B18BF012B07D941F6C010CA
:1006C400C0F600004FF4F17100F0DAFB4FF4605310
:1006D400C4F202031A6C42F080521A644FF4E043ED
:1006E400C4F200031A6842F480721A60FFF706FE2F
:1006F40000F164064FF4E045C4F2000504E0FFF79E
:10070400FDFDB04280F02F812B6813F4807FF6D07A
:1007140043F67003C4F2020300221A70FFF7EEFDE1
:1007240000F59C5508354FF46056C4F2020604E007
:10073400FFF7E4FDA84280F01881336F13F0020F35
:10074400F6D1227A43F67003C4F202031A70A36846
:10075400012B13D1FFF7D2FD00F59C5508354FF45A
:100764006056C4F2020604E0FFF7C8FDA84280F018
:10077400FE80336F13F0020FF6D012E0FFF7BEFDD8
:1007840000F59C5508354FF46056C4F2020604E0A7
:10079400FFF7B4FDA84280F0EC80336F13F0020F32
:1007A400F6D1A369022B07D941F6C010C0F60000A8
:1007B40040F2262100F064FBA369002B00F0DB80EB
:1007C4004FF46052C4F20202926802F00C02082A4A
:1007D40000F0D380022B40F09C80E369002B18BF0B
:1007E400B3F5800F07D041F6C010C0F6000040F208
:1007F4002F2100F045FB236A3F2B07D941F6C01097
:10080400C0F600004FF40C7100F03AFB636AC03B81
:10081400F02B07D941F6C010C0F6000040F2312198
:1008240000F02EFBA36A022B18BF042B0BD0062B5F
:1008340009D0082B07D041F6C010C0F6000040F2E2
:10084400322100F01DFBE36A043B0B2B07D941F670
:10085400C010C0F6000040F2332100F011FB602309
:10086400C4F2472300221A60FFF748FD00F1640632
:100874004FF46055C4F2020503E0FFF73FFDB042B8
:100884007DD22B6813F0007FF7D1236A626A47F6A2
:10089400C07191FAA1F1B1FA81F1C9B28A4043EA77
:1008A4000201A36A5B085A1E4FF4403393FAA3F380
:1008B400B3FA83F3DBB29A400A43E3691343E16A70
:1008C4004FF0706292FAA2F2B2FA82F2D2B201FA54
:1008D40002F21A4342F000524FF46053C4F202038E
:1008E4005A606023C4F2472301221A60FFF706FD11
:1008F40000F164054FF46054C4F2020403E0FFF70E
:10090400FDFCA8423DD2236813F0007FF7D00020FD
:1009140070BD6023C4F2472300221A60FFF7EEFC87
:1009240000F164054FF46054C4F2020403E0FFF7DD
:10093400E5FCA84227D2236813F0007FF7D10020FA
:1009440070BD012070BD032070BD032070BD032065
:1009540070BD012070BD032070BD032070BD032055
:1009640070BD032070BD032070BD032070BD032043
:1009740070BD032070BD002070BD012070BD032038
:1009840070BD032070BD032070BD00BF4FF46053E1
:10099400C4F202039B6803F00C03042B4AD0082B17
:1009A40004D04FF41050C0F2F40070474FF4605379
:1009B400C4F20203586800F03F005A6802F480024F
:1009C4004FF4800393FAA3F3B3FA83F3DBB232FA5E
:1009D40003F319BF4FF49053C0F27A034FF410534A
:1009E400C0F2F403B3FBF0F04FF46053C4F202031B
:1009F4005A6847F6C0731A4093FAA3F3B3FA83F321
:100A0400DBB222FA03F303FB00F04FF46053C4F2A9
:100A140002035A6802F440324FF4403393FAA3F3CA
:100A2400B3FA83F3DBB222FA03F301335B00B0FBC6
:100A3400F3F070474FF49050C0F27A00704700BF53
:100A440008B5FFF7A3FF4FF46053C4F202039B6899
:100A540003F0F003F02292FAA2F2B2FA82F2D2B2D6
:100A640023FA02F241F6B013C0F600039B5CD840AF
:100A740040F20C03C2F20003186008BDF8B5044646
:100A84000D460368013B0E2B07D941F6C010C0F692
:100A9400000040F2962100F0F3F9072D07D941F642
:100AA400C010C0F6000040F2972100F0E9F94FF4BD
:100AB4007053C4F202031B6803F00F03AB427DD2F0
:100AC400EAB24FF47053C4F202031A701B6803F0C5
:100AD4000F03AB4240F08081236813F0010F00F054
:100AE400E9806368022B07D941F6C010C0F6000004
:100AF40040F2AD2100F0C4F96368012B08D14FF432
:100B04006052C4F20202126812F4003F14D165E18B
:100B1400022B08D14FF46052C4F20202126812F0A0
:100B2400007F09D15CE14FF46052C4F20202126802
:100B340012F0020F00F056814FF46052C4F2020228
:100B4400916821F003010B439360FFF7D7FB00F595
:100B54009C5508356368012B0FD104E0FFF7CEFBE9
:100B6400A84204D340E14FF46056C4F20206B368CD
:100B740003F00C03042BF1D19CE0022B1CBF4FF4B7
:100B84006056C4F2020614D104E0FFF7B7FBA84292
:100B940004D32BE14FF46056C4F20206B36803F0A9
:100BA4000C03082BF1D185E0FFF7A8FBA84200D382
:100BB4001EE1B36813F00C0FF6D17BE0236813F049
:100BC400010F6BD06368022B07D941F6C010C0F641
:100BD400000040F2F52100F053F96368012B08D1BD
:100BE4004FF46052C4F20202126812F4003F14D1AE
:100BF40000E1022B08D14FF46052C4F202021268E1
:100C040012F0007F09D1F7E04FF46052C4F20202FF
:100C1400126812F0020F00F0F1804FF46052C4F237
:100C24000202916821F003010B439360FFF766FB16
:100C340000F59C5608366368012B0FD104E0FFF7DA
:100C44005DFBB04204D3DBE04FF46057C4F202070B
:100C5400BB6803F00C03042BF1D11FE0022B1CBF73
:100C64004FF46057C4F2020714D104E0FFF746FBC7
:100C7400B04204D3C6E04FF46057C4F20207BB6825
:100C840003F00C03082BF1D108E0FFF737FBB04267
:100C940000D3B9E0BB6813F00C0FF6D1EAB24FF4FD
:100CA4007053C4F202031A701B6803F00F03AB42C3
:100CB40040F0AC80236813F0020F24D0A368002B0B
:100CC40018BF802B15D0902B13D0A02B11D0B02B94
:100CD4000FD0C02B0DD0D02B0BD0E02B09D0F02B94
:100CE40007D041F6C010C0F6000040F2453100F0D4
:100CF400C7F84FF46053C4F20203996821F0F0017D
:100D0400A2680A439A60236813F0040F20D0E368B2
:100D1400002B18BFB3F5805F10D0B3F5A05F0DD0E2
:100D2400B3F5C05F0AD0B3F5E05F07D041F6C01059
:100D3400C0F600004FF4537100F0A2F84FF4605372
:100D4400C4F20203996821F4E051E2680A439A600C
:100D5400236813F0080F21D02369002B18BFB3F5C3
:100D6400805F10D0B3F5A05F0DD0B3F5C05F0AD09B
:100D7400B3F5E05F07D041F6C010C0F6000040F2C2
:100D8400533100F07DF84FF46053C4F202039A68C3
:100D940022F46042216942EAC1029A60FFF750FEE0
:100DA40044F6D353C1F26203A3FB00129209013A41
:100DB400B2F1807F2CD24EF21003CEF200035A60BF
:100DC4004FF46D42CEF20002F02182F8231000208D
:100DD400986007221A60F8BD0120F8BD0120F8BD13
:100DE4000120F8BD0120F8BD0320F8BD0320F8BDA3
:100DF4000320F8BD0120F8BD0120F8BD0120F8BD95
:100E04000320F8BD0320F8BD0320F8BD0120F8BD80
:100E14000020F8BDFEE700BF08B5034800F056F80F
:100E24000120FFF7F7FF00BFF019000808B50D4BCC
:100E34001B6813B90C4A0B4B1A600A4B1B6803302E
:100E440020F003001844094A904206D900F058F9EA
:100E54000C2303604FF0FF3008BD024A10601846AF
:100E640008BD00BF800000202001002000FC0120FC
:100E740001230360014B0B60704700BF0400002096
:100E840008B503460A460348194600F005F8FFF77B
:100E9400C3FF00BF441A00080FB400B583B004AB0D
:100EA40053F8042B01930848802100F061F9011ED6
:100EB40003DD054800F05CF80146084603B05DF820
:100EC40004EB04B0704700BF8800002010B504464E
:100ED40000F01CF90146204600F04AF802480121BE
:100EE40000F046F810BD00BF701A0008F0B585B0D8
:100EF40005460C461B4B1B6813F0010F01D1084635
:100F04002DE0194B1B6883B9184B019304230293FA
:100F14000323039301AF012630463946ABBE064690
:100F2400B6F1FF3F13D0104B1E600F4B1B680193AB
:100F34000295039401AE052528463146ABBE05460D
:100F4400B5F1FF3F06D0AC4207D0601B07E04FF07D
:100F5400FF3004E04FF0FF3001E04FF0FF3005B008
:100F6400F0BD00BFF0ED00E008010020A01A000869
:100F740008B5FFF7BBFF08BD0C4B1A6842F001022D
:100F84001A60002199601A6822F0847222F4803277
:100F94001A60074A5A601A6822F480221A60D960DB
:100FA4004FF00062034B9A60704700BF0038024064
:100FB4001030002400ED00E00A4B1A680A4BA3FB32
:100FC40002139B09013BB3F1807F09D2074A5360A6
:100FD400F021074B83F82310002393600723136049
:100FE400704700BF0C000020D34D621010E000E0F9
:100FF40000ED00E0034B18601A461368002BFCD187
:10100400704700BF18010020034B1B681BB1024B43
:101014001A68013A1A6070471801002008B5FFF7F2
:10102400F3FF08BD10B592B0174B1A6C42F0805212
:101034001A64A3F5E4331A6842F440421A600123A7
:1010440001930293022407944FF480030893082326
:1010540009934FF4A8730A930B9407230C9301A8E4
:10106400FFF7CCF90F230D930E9400230F934FF445
:10107400A05310934FF4805311930DA80521FFF74B
:10108400FDFC12B010BD00BF0038024008B5FFF7E8
:1010940073FFFFF717F9FFF7C5FF08BDF8B513484D
:1010A400FFF714FF1248134B1968FFF7F5FEFFF71B
:1010B40083FF0024104E4FF48055104F30462946CC
:1010C4000122FFF757F940F29A20FFF793FF3046C9
:1010D40029460022FFF74EF94FF4A770FFF78AFF65
:1010E400013438462146FFF7D7FEE7E7A41A000883
:1010F400B81A00080C000020000C0240CC1A0008AA
:10110400014B1868704700BF70000020034613F8B5
:10111400012B002AFBD1181A0138704730B5141E70
:101124009BB0054604DA8B2303604FF0FF301CE0CC
:101134004FF4027200910491ADF80C2014BF04F135
:10114400FF3121464FF6FF7202910591ADF80E2052
:1011540069461A461E9B00F077F8431CBCBF8B23DC
:101164002B6014B1009B00221A701BB030BD00002C
:1011740073B50093054B06460D4614461868314670
:101184002A462346FFF7CAFF02B070BD7000002054
:101194002DE9F0478D68AB4281460C4692461F46C6
:1011A40043D38B8913F4906F3DD026680969C1EB52
:1011B40006086669022206EB460696FBF2F608F17B
:1011C40001023A44964238BF16465B050FD53146B4
:1011D40000F026FB054698B12169424600F0B7FAB3
:1011E400A38923F4906343F08003A38113E0324680
:1011F40000F06AFB054670B94846216900F0CCFA54
:101204000C23C9F80030A38943F04003A3814FF0B5
:10121400FF30BDE8F087256166614544C8EB0606EA
:101224002560A6603D46AF4200D23D462A4620686E
:10123400514600F095FAA3685B1BA36023681D4424
:1012440025600020BDE8F0872DE9F0439DB00746F6
:1012540003938B891C060D4616460CD50B6953B9AE
:10126400402100F0DDFA2860286110B90C233B60AE
:10127400C8E040236B610023099320238DF82930B3
:1012840030238DF82A3033461C4613F8012B1AB943
:10129400B4EB06090FD002E0252AF5D1F8E7384669
:1012A400294632464B46FFF773FF013000F0A58014
:1012B400099B4B4409932378002B00F09E80002364
:1012C4004FF0FF3204930793059206938DF8533041
:1012D4001A9304F101094C464D4E217830460522FB
:1012E40000F026FA09F10109049B28B1861B0120AC
:1012F400B04003430493EEE7D90644BF20228DF89F
:1013040053201A0744BF2B228DF8532022782A2A0F
:1013140002D0079B21460EE0039A111D1268039127
:10132400002A01DB079204E0524243F002030792D1
:10133400049301340AE00C4601312278303A092A38
:1013440003D80A2000FB0323F5E7079323782E2B09
:101354001AD163782A2B0AD1039B1A1D1B680392A6
:10136400002B04F10204B8BF4FF0FF330BE0611C03
:1013740000230C4601312278303A092A03D80A2086
:1013840000FB0323F5E70593224E21783046032220
:1013940000F0CEF930B1861B049B4020B0400343DB
:1013A4000493013421781C488DF828100622661C09
:1013B40000F0BEF988B1194B33B9039B073323F00E
:1013C40007030833039314E003AB0093384604A9DE
:1013D4002A46134BAFF3008007E003AB0093384673
:1013E40004A92A460E4B00F08FF8B0F1FF3F804667
:1013F40003D0099B4344099345E7AB895B0601D4B9
:10140400099801E04FF0FF301DB0BDE8F08300BF44
:10141400DA1A0008E01A0008E41A000800000000C4
:10142400951100082DE9F84315461F468A680B6993
:10143400DDF820809A42A8BF13462B6091F8432020
:1014440006460C460AB101332B602368990602D57F
:101454002B6802332B60236813F006091DD094F81F
:1014640043302268003318BF012392061FD5E118C8
:101474005A1C302081F84300224494F8451082F825
:101484004310023313E03046394604F119020123B4
:10149400C047013007D009F10109E2682B68D31A6B
:1014A4009945F0DBDBE74FF0FF30BDE8F8833046C9
:1014B400394604F14302C0470130F4D023682A6856
:1014C400E16803F00603042B08BFC2EB010523699E
:1014D400A2680CBF25EAE57500259A42C4BFC3EB98
:1014E4000203ED184FF00009A9450ADA30463946DF
:1014F40004F11A020123C0470130D4D009F10109D3
:10150400F2E70020BDE8F8832DE9FF470E7E0C9D2D
:101514006E2E80460C4691469A4601F1430000F037
:10152400A58011D8632E22D009D8002E00F0AF80F8
:10153400582E40F0BF8081F845607B4A4FE0642E0E
:101544001ED0692E1CD0B5E0732E00F0A48009D8FB
:101554006F2E2BD0702E40F0AD800B6843F020032B
:101564000B6038E0752E21D0782E34D0A2E02B68A1
:101574001A1D1B682A6001F1420781F842309DE080
:1015840022682B6812F0800F03D01A1D2A601D6890
:1015940005E05106F9D51A1D2A60B3F90050002D53
:1015A40039DA2D236D4284F8433034E022682B6805
:1015B40012F0800F03D01A1D2A601D6804E0520641
:1015C400F9D51A1D2A601D88237E574A6F2B14BF34
:1015D4000A2308231BE07823544A84F845302368FF
:1015E400296813F0800F01F104062E6001D00D6804
:1015F40002E05F06FBD50D88DE0744BF43F02003FD
:1016040023601DB9236823F02003236010230021E5
:1016140084F8431001E0444A0A236668A660002E59
:1016240003DB216821F00401216005B96EB104F1E6
:101634004201B5FBF3F603FB16550F46555D01F861
:1016440001593546002EF4D100E00746082B0AD193
:101654002368DD0707D5626823699A4203DC3023D7
:1016640007F8013C013FC01B20612CE009682B688E
:10167400626911F0800F04D0191D29601B681A607B
:1016840005E04906F8D5191D29601B681A80002356
:101694002361074617E02B681A1D2A601F68384625
:1016A400FFF734FD63682061984288BF2361236992
:1016B400636005E004F1420784F84260012323617A
:1016C400002384F84330CDF800A04046214603AA05
:1016D4004B46FFF7A7FE013002D14FF0FF301FE069
:1016E400404649463A462369D0470130F5D023683D
:1016F4009B0705D4E068039B9842B8BF18460FE0E7
:101704000025E268039BD31A9D42F3DA404649461A
:1017140004F119020123D0470130DED00135F0E78E
:1017240004B0BDE8F08700BFEB1A0008FC1A0008FB
:1017340010B5C9B202449042034606D01C788C42CC
:1017440000F10100F7D1184610BD002010BD10B5FE
:101754000023934203D0CC5CC4540133F9E710BD99
:10176400814270B501D300230EE08C18A042FAD256
:101774008518134613F1FF3305D3514266182944E3
:10178400F65CCE54F6E770BD934203D0CC5CC454EF
:101794000133F9E770BD000030B500293CD051F8A1
:1017A400042C0B1F1D49002AB8BF9B180A680C465D
:1017B40012B95A600B6030BD93420DD219685818A3
:1017C400904203D15A581144426819605A60236008
:1017D40030BD994203D80A4651680029F9D11468EA
:1017E40015199D420AD11B682344D01888421360FE
:1017F40012D10868034413604B680CE002D90C232F
:10180400036030BD18681C188C4203D10C68496809
:10181400204418605960536030BD00BF100100209F
:1018240070B5CD1C25F0030508350C2D38BF0C25EB
:10183400002D06463FDB8D423DD3214B1C681846E4
:101844002146A1B10B685B1B0ED40B2B03D90B6093
:10185400CC18CD501FE08C4202D1626802601AE0BD
:101864004B6863600C4616E00C464968E9E7154C82
:1018740023681BB9304600F04DF8206029463046F5
:1018840000F048F8431C014615D0C41C24F003049E
:1018940084420AD1256004F10B00231D20F00700C7
:1018A400C31A0BD05A42E25070BD3046611A00F0A0
:1018B40031F80130EED10C233360002070BD00BF3D
:1018C400100100200C010020F8B5064614460D4610
:1018D40021B91146BDE8F840FFF7A2BF1AB9FFF7D6
:1018E4005BFF2046F8BD00F025F8A0420ED230463A
:1018F4002146FFF795FF074650B129462246FFF7D8
:1019040026FF30462946FFF747FF01E02846F8BD89
:101914003846F8BD38B5064C002305460846236012
:10192400FFF784FA431C02D1236803B12B6038BD4E
:101934001401002051F8040C002802DA04390B5871
:1019440018440438704700002E2E2F737973746581
:101954006D2F7372632F73746D333266342D686127
:101964006C2F73746D3332663478785F68616C5FA2
:10197400636F727465782E63000000002E2E2F733F
:10198400797374656D2F7372632F73746D3332665C
:10199400342D68616C2F73746D3332663478785FDC
:1019A40068616C5F6770696F2E630000000000005F
:1019B4000102030401020304060708092E2E2F73F3
:1019C400797374656D2F7372632F73746D3332661C
:1019D400342D68616C2F73746D3332663478785F9C
:1019E40068616C5F7263632E6300000061626F72F2
:1019F4007428292C2065786974696E672E2E2E0050
:101A04002C2066756E6374696F6E3A2000000000C6
:101A1400617373657274696F6E2022257322206668
:101A240061696C65643A2066696C652022257322BD
:101A34002C206C696E65202564257325730A0000CB
:101A44006173736572745F706172616D28292066B9
:101A540061696C65643A2066696C6520222573228D
:101A64002C206C696E652025640A00000A000000C1
:101A74006D61696E28617267633D25642C20617213
:101A840067763D5B000000002C20000022257322B5
:101A9400000000005D293B0A000000003A74740055
:101AA40048656C6C6F2041524D20576F726C6421F5
:101AB4000000000053797374656D20636C6F636B71
:101AC4003A202575487A0A005365636F6E642025B1
:101AD400750A00004300232D302B2000686C4C0055
:101AE400656667454647003031323334353637381A
:101AF4003941424344454600303132333435363778
:091B040038396162636465660012
:101B10007856341284000020000000000024F400F5
:101B200000000000000000000000000000000000B5
:101B300000000000000000000000000000000000A5
:101B4000D81A00080000000000000000000000009B
:101B50000000000000000000000000000000000085
:101B60000000000000000000000000000000000075
:101B70000000000000000000000000000000000065
:081B8000100000203254769899
:040000050800018965
:00000001FF
