:020000040800F2
:1000000000000220950200089D020008A1020008DD
:10001000A5020008A9020008AD02000800000000C7
:10002000000000000000000000000000B102000815
:10003000B502000800000000B902000875170008AA
:10004000C1020008C1020008C1020008C102000884
:10005000C1020008C1020008C1020008C102000874
:10006000C1020008C1020008C1020008C102000864
:10007000C1020008C1020008C1020008C102000854
:10008000C1020008C1020008C1020008C102000844
:10009000C1020008C1020008C1020008C102000834
:1000A000C1020008C1020008C1020008C102000824
:1000B000C1020008C1020008C1020008C102000814
:1000C000C1020008C1020008C1020008C102000804
:1000D000C1020008C1020008C1020008C1020008F4
:1000E000C1020008C1020008C1020008C1020008E4
:1000F000C1020008C1020008C1020008C1020008D4
:10010000C1020008C1020008C1020008C1020008C3
:10011000C1020008C1020008C1020008C1020008B3
:10012000C1020008C1020008C1020008C1020008A3
:10013000C1020008C1020008C1020008C102000893
:10014000C1020008C1020008C1020008C102000883
:10015000C1020008C1020008C1020008C102000873
:10016000C1020008C1020008C1020008C102000863
:10017000C1020008C1020008C1020008000000001E
:10018000C1020008C102000800B583B0304B314AFB
:100190001360314A1360314B3149002201E01A608B
:1001A00004338B42FBD32B4B1B6813B92A4B1B68C0
:1001B00003B1FEE7264B2B4A13602B4A13602B4BEF
:1001C0002B4A2C4803E0116819600433043283423F
:1001D000F9D3244B1A68284B9A4204D1224B1A684F
:1001E0001B689A4200D0FEE701F04CFB01A869466B
:1001F00001F0EAF9214B224EF61AB61000241D46F2
:1002000003E055F8243098470134A642F9DC1D4B31
:100210001D4EF61AB61000241D4603E055F8243092
:1002200098470134A642F9DC0198009901F032FBAD
:100230000546164B164CE41AA4101E4603E0013C7A
:1002400056F824309847002CF9DC284601F08EF946
:10025000BABADECA780000207001002078000020C1
:100260007401002000000020740000200000002025
:10027000842300087800002078563412C402000855
:10028000C4020008C4020008C4020008C402000836
:10029000C402000808B5FFF777FF00BFFEE700BF04
:1002A000FEE700BFFEE700BFFEE700BFFEE700BFBE
:1002B000FEE700BFFEE700BFFEE700BFFEE700BFAE
:0402C000FEE700BF96
:1002C400704700BF08B50C4B1A6842F400721A60FC
:1002D4001A6842F480621A601A6842F480721A60E2
:1002E4004FF47A5000F02EF8032000F00DF8FFF7D9
:1002F400E7FF002008BD00BF003C0240014B186826
:10030400704700BF7C00002010B50446C31E042BB8
:1003140003D90A48BA2101F05DF904F00704084B37
:10032400D86820F4E0600004000C40EA042040F0A7
:10033400BF6040F40030D86010BD00BF50210008F9
:1003440000ED00E00138B0F1807F0AD2064B58601E
:10035400F021064A82F823100020986007221A60D0
:1003640070470120704700BF10E000E000ED00E09E
:100374002DE9F84F05460E460B681BB99748C32173
:1003840001F028F97368012B22D9112B20D0022BFC
:100394001ED0122B1CD0924A934219D002F580121F
:1003A400934215D002F58012934211D0A2F5F812AF
:1003B40093420DD002F58012934209D002F58012C7
:1003C400934205D0032B03D08448C42101F002F9E1
:1003D400B368022B03D98148C52101F0FBF800243E
:1003E40042E1A1460127A740336803EA0708B8455C
:1003F40040F039817368022B01D0122B51D133693B
:10040400C3B3092B36D0ABB3A3B39BB393B3012BC4
:1004140030D02FD0022B2DD02CD02BD0032B29D091
:10042400042B27D026D025D0052B23D022D0092B6E
:1004340020D0062B1ED0092B1CD0072B1AD019D084
:1004440018D0082B16D015D014D0092B12D011D0E7
:100454000A2B0FD00ED00B2B0CD00C2B0AD009D0AA
:100464000D2B07D00C2B05D00F2B03D05B48D621C6
:1004740001F0B0F8336904F00702920003FA02F1C4
:10048400E308083355F823004FF00F0C0CFA02F27E
:1004940020EA020245F8232055F823200A4345F8B0
:1004A40023202B684FEA440A4FF0030B0BFA0AFB94
:1004B4006FEA0B0B03EA0B032B602A68736803F0E3
:1004C400030303FA0AF313432B6073685A1E012AC9
:1004D40003D9112B01D0122B1DD1F368032B03D99F
:1004E4003E48E62101F076F8AB680BEA0303AB6003
:1004F400AA68F36803FA0AF31343AB606B6823EA50
:1005040007076F606A687368C3F3001303FA09F995
:1005140042EA09036B60EB680BEA0303EB60EA68E9
:10052400B36803FA0AF31343EB60736813F0805F54
:1005340000F099802B4B5A6C42F480425A6404F0C8
:10054400030080004FF00F0C0CFA00FCA108A3F587
:1005540080338A1C53F8227027EA0C0743F8227070
:1005640053F82230204A954240D002F580629542E9
:1005740031D002F5806295422BD002F5806295421B
:1005840025D002F5806295421FD002F58062954223
:1005940019D002F58062954213D002F5806295422B
:1005A4000DD002F58062954207D002F58062954233
:1005B40001D109221BE00A2219E0082217E00722D0
:1005C40015E0062213E0052211E004220FE00322C5
:1005D4000DE002220BE0012209E000BF84210008A3
:1005E400000011100038024000000240002202FA0C
:1005F40000F0184302311F4B43F8210003F58063D8
:1006040019686FEA0802114019605968114059606D
:10061400736813F4803F04D0174B196841EA08014A
:100624001960736813F4003F04D0134B596841EA0E
:1006340008015960104B996811409960D9680A40C3
:10064400DA60736813F4801F04D00B4B9A6842EA93
:1006540008029A60736813F4001F04D0064BDA682A
:1006640042EA0802DA6001340F2C7FF6BAAEBDE824
:10067400F88F00BF00380140003C014070B50646C9
:100684000C4615464B1E9BB2012B28D9042926D0B3
:10069400082924D0102922D0202920D040291ED076
:1006A40080291CD0B1F5807F19D0B1F5007F16D018
:1006B400B1F5806F13D0B1F5006F10D0B1F5805F44
:1006C4000DD0B1F5005F0AD0B1F5804F07D0B1F578
:1006D400004F04D008484FF4CB7100F07BFF012D8C
:1006E40004D9054840F2971100F074FF0DB134832A
:1006F40070BD748370BD00BF8421000870B50446CA
:1007040003680F2B04D9AB484FF49D7100F062FFCE
:10071400236813F0010F5ED06368012B06D9052B03
:1007240004D0A44840F23F1100F054FFA24B9B6850
:1007340003F00C03042B0AD09F4B9B6803F00C03BB
:10074400082B0ED19C4B5B6813F4800F09D09A4B95
:100754001B6813F4003F3ED06368012B40F0E8812E
:1007640039E00022954B1A70FFF7C8FD00F59C553F
:100774000835914E04E0FFF7C1FDA84280F0DA810C
:10078400336813F4003FF6D122798C4B1A706368F6
:10079400012B10D1FFF7B2FD00F59C550835864EAC
:1007A40004E0FFF7ABFDA84280F0C681336813F480
:1007B400003FF6D00FE0FFF7A1FD00F59C5508358A
:1007C4007D4E04E0FFF79AFDA84280F0B7813368BC
:1007D40013F4003FF6D1236813F0020F5ED0E368F0
:1007E400012B04D9734840F27F1100F0F3FE236912
:1007F4001F2B04D96F484FF4C07100F0EBFE6E4B11
:100804009B6813F00C0F0AD06B4B9B6803F00C032E
:10081400082B0ED1684B5B6813F4800F09D1664B2B
:100824001B6813F0020F39D0E368012B40F0888174
:1008340034E0E36803B30122614B1A60FFF75EFD05
:1008440000F164065C4D04E0FFF758FDB04280F00F
:1008540079812B6813F0020FF6D0574B196821F0F9
:10086400F8012269F82090FAA0F0B0FA80F0C0B242
:1008740082400A431A6011E00022514B1A60FFF7CC
:100884003DFD00F164064C4D04E0FFF737FDB04236
:1008940080F05A812B6813F0020FF6D1236813F00D
:1008A400080F2ED06369012B04D942484FF4DC7140
:1008B40000F090FE636993B10122424B1A60FFF786
:1008C4001DFD00F164063C4D04E0FFF717FDB04246
:1008D40080F03C816B6F13F0020FF6D011E0002220
:1008E400384B1A60FFF70AFD00F16406324D04E04C
:1008F400FFF704FDB04280F02B816B6F13F0020F01
:10090400F6D1236813F0040F6BD0A368012B06D92A
:10091400052B04D027484FF4F17100F05BFE264B01
:100924001A6C42F080521A64A3F5E4331A6842F454
:1009340080721A60FFF7E2FC00F16406224D04E0C5
:10094400FFF7DCFCB04280F005812B6813F4807F54
:10095400F6D000221D4B1A70FFF7D0FC00F59C5511
:100964000835154E04E0FFF7C9FCA84280F0F48076
:10097400336F13F0020FF6D1227A144B1A70A36866
:10098400012B10D1FFF7BAFC00F59C5508350A4E2F
:1009940004E0FFF7B3FCA84280F0E080336F13F06B
:1009A400020FF6D01DE0FFF7A9FC00F59C550835B1
:1009B400014E12E0C421000800380240023802400F
:1009C40000004742800E47420070004070380240E9
:1009D400FFF794FCA84280F0C380336F13F0020F3A
:1009E400F6D1A369022B04D9634840F2262100F012
:1009F400F1FDA369002B00F0B580604A926802F013
:100A04000C02082A00F0B080022B7ED1E3693BB1CE
:100A1400B3F5800F04D0584840F22F2100F0DAFDDE
:100A2400236A3F2B04D954484FF40C7100F0D2FDD3
:100A3400636AC03BF02B04D94F4840F2312100F0E7
:100A4400C9FDA36A022B0AD0042B08D0062B06D0BA
:100A5400082B04D0484840F2322100F0BBFDE36A81
:100A6400043B0B2B04D9444840F2332100F0B2FD7F
:100A74000022434B1A60FFF741FC00F164063F4D2E
:100A840003E0FFF73BFCB04270D22B6813F0007F09
:100A9400F7D1236A626A47F6C07191FAA1F1B1FAFB
:100AA40081F1C9B28A4043EA0201A36A5B085A1E73
:100AB4004FF4403393FAA3F3B3FA83F3DBB29A40CF
:100AC4000A43E3691343E16A4FF0706292FAA2F2B7
:100AD400B2FA82F2D2B201FA02F21A4342F000529E
:100AE400264B5A600122264B1A60FFF707FC00F1DF
:100AF4006405224C03E0FFF701FCA84238D22368C6
:100B040013F0007FF7D0002070BD00221C4B1A6048
:100B1400FFF7F4FB00F16405184C03E0FFF7EEFB6C
:100B2400A84227D2236813F0007FF7D1002070BDBC
:100B3400012070BD032070BD032070BD032070BD73
:100B4400012070BD032070BD032070BD032070BD63
:100B5400032070BD032070BD032070BD032070BD51
:100B6400032070BD002070BD012070BD032070BD46
:100B7400032070BD032070BDC4210008003802406A
:100B840060004742284B9B6803F00C03042B49D0B8
:100B9400082B01D025487047234B586800F03F00CC
:100BA4005A6802F480024FF4800393FAA3F3B3FA71
:100BB40083F3DBB232FA03F311D01D4BB3FBF0F035
:100BC400194B5A6847F6C0731A4093FAA3F3B3FA61
:100BD40083F3DBB222FA03F303FB00F010E0134BC0
:100BE400B3FBF0F0104B5A6847F6C0731A4093FAFF
:100BF400A3F3B3FA83F3DBB222FA03F303FB00F0AB
:100C0400094B5A6802F440324FF4403393FAA3F389
:100C1400B3FA83F3DBB222FA03F301335B00B0FBD4
:100C2400F3F0704702487047003802400024F40093
:100C340000127A0008B5FFF7A5FF094B9A6802F085
:100C4400F002F02393FAA3F3B3FA83F3DBB222FAAC
:100C540003F3044AD35CD840034B186008BD00BFBB
:100C640000380240B42100080C000020F8B5044606
:100C74000D460368013B0E2B04D9AC4840F2962183
:100C840000F0A8FC072D04D9A84840F2972100F0F1
:100C9400A1FCA74B1B6803F00F03AB4261D2EAB27D
:100CA400A34B1A701B6803F00F03AB4240F02D8175
:100CB400236813F0010F00F0B4806368022B04D999
:100CC4009A4840F2AD2100F085FC6368012B05D100
:100CD400984A126812F4003F0ED118E1022B05D194
:100CE400944A126812F0007F06D112E1914A126808
:100CF40012F0020F00F00F818E4A916821F0030177
:100D04000B439360FFF7FAFA00F59C5508356368C6
:100D1400012B0CD104E0FFF7F1FAA84201D3FCE067
:100D2400844EB36803F00C03042BF4D179E0022B56
:100D340011D104E0FFF7E2FAA84201D3EFE07D4EBF
:100D4400B36803F00C03082BF4D16AE0FFF7D6FA7A
:100D5400A84201D3E5E0774EB36813F00C0FF5D148
:100D64005FE0236813F0010F52D06368022B04D9AB
:100D74006E4840F2F52100F02DFC6368012B05D18B
:100D84006C4A126812F4003F0ED1CCE0022B05D15C
:100D9400684A126812F0007F06D1D3E0654A1268EF
:100DA40012F0020F00F0D080624A916821F0030132
:100DB4000B439360FFF7A2FA00F59C56083663686C
:100DC400012B0CD104E0FFF799FAB04201D3BDE046
:100DD400584FBB6803F00C03042BF4D118E0022B2A
:100DE40011D104E0FFF78AFAB04201D3B0E0514FC9
:100DF400BB6803F00C03082BF4D109E0FFF77EFA7B
:100E0400B04201D3A6E04B4FBB6813F00C0FF5D1F1
:100E1400EAB2474B1A701B6803F00F03AB4240F071
:100E24009B80236813F0020F1DD0A368A3B1802B0D
:100E340012D0902B10D0A02B0ED0B02B0CD0C02BE6
:100E44000AD0D02B08D0E02B06D0F02B04D03748A2
:100E540040F2453100F0BEFB364B996821F0F001B9
:100E6400A2680A439A60236813F0040F19D0E36858
:100E740083B1B3F5805F0DD0B3F5A05F0AD0B3F5AD
:100E8400C05F07D0B3F5E05F04D028484FF4537136
:100E940000F0A0FB274B996821F4E051E2680A4373
:100EA4009A60236813F0080F1AD0236983B1B3F54D
:100EB400805F0DD0B3F5A05F0AD0B3F5C05F07D053
:100EC400B3F5E05F04D0194840F2533100F082FBDF
:100ED400184B9A6822F46042216942EAC1029A607E
:100EE400FFF7A8FE144BA3FB00239B09013BB3F1BE
:100EF400807F33D2114A5360F021114B83F82310C1
:100F04000020906007231360F8BD0120F8BD012084
:100F1400F8BD0120F8BD0120F8BD0320F8BD032071
:100F2400F8BD0320F8BD0120F8BD00BFC4210008AE
:100F3400003C024000380240D34D621010E000E053
:100F440000ED00E00120F8BD0120F8BD0320F8BD4C
:100F54000320F8BD0320F8BD0120F8BD0020F8BD32
:100F640008B5FFF767FE084B9A6802F4E0524FF4A5
:100F7400E05393FAA3F3B3FA83F3DBB222FA03F355
:100F8400024AD35CD84008BD00380240B4210008AE
:100F940008B5FFF74FFE084B9A6802F460424FF41D
:100FA400604393FAA3F3B3FA83F3DBB222FA03F3B5
:100FB400024AD35CD84008BD00380240B42100087E
:100FC4002DE9F04104460368BF4A934218D0A2F5C4
:100FD4004C42934214D002F58062934210D002F541
:100FE400806293420CD002F58062934208D002F5ED
:100FF4004442934204D0B54840F2147100F0EAFA36
:101004006368B34A934204D9B04840F2157100F0C2
:10101400E1FAA3683BB1B3F5805F04D0AB4840F27A
:10102400167100F0D7FAE3683BB1B3F5005F04D062
:10103400A64840F2177100F0CDFA236953B1B3F515
:10104400806F07D0B3F5C06F04D0A0484FF4E361BC
:1010540000F0C0FA63694FF6F372134200D123B96A
:101064009A4840F2197100F0B5FAA3696BB1B3F56F
:10107400807F0AD0B3F5007F07D0B3F5407F04D05A
:10108400924840F21A7100F0A5FAA369A3B123684B
:101094008D4A934210D0A2F54C4293420CD002F5F3
:1010A4008062934208D002F54C42934204D08748B0
:1010B40040F21F7100F08EFA2368196921F440513F
:1010C400E2680A431A612268D36823F4164323F0C2
:1010D4000C03A0682169084361690843E16901437D
:1010E4000B43D3602368596921F44071A2690A4310
:1010F4005A61E369B3F5004F74D1256803F1804365
:1011040003F510439D4203D003F580639D4234D11F
:10111400FFF73EFF00EB800000EB800063685B009C
:10112400B0FBF3F76B4EA6FB07277F093F01FFF7E0
:101134002FFF00EB800000EB800063685B00B0FBD6
:10114400F3F8FFF725FF00EB800000EB80006368F5
:101154005B00B0FBF3F3A6FB03235B09642202FBF1
:1011640013884FEA081808F13208A6FB0836C6F3BC
:1011740043163743AF60BDE8F081FFF7F1FE00EBA3
:10118400800000EB800063685B00B0FBF3F7514E16
:10119400A6FB07277F093F01FFF7E2FE00EB800073
:1011A40000EB800063685B00B0FBF3F8FFF7D8FE48
:1011B40000EB800000EB800063685B00B0FBF3F39E
:1011C400A6FB03235B09642202FB13884FEA081879
:1011D40008F13208A6FB0836C6F343163743AF605E
:1011E400BDE8F0812568384B9D4203D003F5806348
:1011F4009D4234D1FFF7CCFE00EB800000EB800071
:1012040063689B00B0FBF3F7324EA6FB07277F0908
:101214003F01FFF7BDFE00EB800000EB8000636838
:101224009B00B0FBF3F8FFF7B3FE00EB800000EB8C
:10123400800063689B00B0FBF3F3A6FB03235B0908
:10124400642202FB13884FEA081808F13208A6FB4F
:101254000836C6F343163743AF60BDE8F081FFF7A5
:101264007FFE00EB800000EB800063689B00B0FB16
:10127400F3F7184EA6FB07277F093F01FFF770FE1F
:1012840000EB800000EB800063689B00B0FBF3F888
:10129400FFF766FE00EB800000EB800063689B00B4
:1012A400B0FBF3F0A6FB00304009642303FB108875
:1012B4004FEA081808F13208A6FB0826C6F34316BD
:1012C4003743AF60BDE8F08100100140F42100080D
:1012D400A037A0001F85EB512DE9F04105460C46CF
:1012E40090461E46FFF70AF88719B8F1000F24D07C
:1012F4004FE0B6F1FF3F20D0FFF700F8B8421CD30F
:101304002B68DA6822F08002DA602B68DA6822F04F
:101314002002DA602B68DA6822F48072DA602B68C3
:101324005A6922F001025A61012385F839300023F9
:1013340085F838300320BDE8F0812B681B68234012
:10134400A342D6D10020BDE8F081B6F1FF3F20D002
:10135400FEF7D4FFB8421CD32B68DA6822F080026F
:10136400DA602B68DA6822F02002DA602B68DA6827
:1013740022F48072DA602B685A6922F001025A6101
:10138400012385F83930002385F838300320BDE87F
:10139400F0812B681B682340A342D6D00020BDE80F
:1013A400F08100BF10B5044600285BD08369A3B167
:1013B40003682D4A93422CD0A2F54C42934228D084
:1013C40002F58062934224D002F54C42934220D02D
:1013D4002648F92100F0FEF81BE00368224A9342F4
:1013E40017D0A2F54C42934213D002F58062934287
:1013F4000FD002F5806293420BD002F580629342D3
:1014040007D002F54442934203D01848FE2100F06D
:10141400E1F894F8393013F0FF0F02D1204600F0C0
:10142400ABF9022384F839302368DA6822F40052D5
:10143400DA602046FFF7C4FD23681A6922F490425B
:101444001A6123685A6922F02A025A612368DA6809
:1014540042F40052DA60002084F83A00012384F850
:10146400393010BD012010BD00100140F4210008E6
:101474002DE9F04104460D461E4690F83930DBB2A2
:10148400012B01D0222B5ED1002D5ED0002A5ED02C
:1014940094F83830012B5CD0012384F838300023D1
:1014A40084F83A3094F83930DBB2222B03D132235A
:1014B40084F8393002E0122384F83930A284E284BB
:1014C4004FF08008002723E00138E084A068B0F5DD
:1014D400805F12D1204641463A463346FFF7FCFE70
:1014E400002838D123682A88C2F308025A60236985
:1014F4000BB902350CE001350AE0204641463A4674
:101504003346FFF7E9FE40BB23682A785A60013569
:10151400E08C0028D8D12046402100223346FFF732
:10152400DBFE0346D8B994F83920D2B2322A03D16B
:10153400222284F8392002E0012284F83920002292
:1015440084F838200CE002230AE0012308E0012398
:1015540006E0022304E0032302E0032300E0032364
:101564001846BDE8F08100BFFEE700BF08B5034898
:1015740000F056F80120FFF7F7FF00BF242200080F
:1015840008B50D4B1B6813B90C4A0B4B1A600A4B78
:101594001B68033020F003001844094A904206D91E
:1015A40000F0B0F90C2303604FF0FF3008BD024A8D
:1015B4001060184608BD00BF8000002074010020A0
:1015C40000FC012001230360014B0B60704700BF46
:1015D4000400002008B503460A460348194600F0F3
:1015E40005F8FFF7C3FF00BF782200080FB400B569
:1015F40083B004AB53F8042B01930848802100F016
:10160400B9F9011E03DD054800F05CF801460846FF
:1016140003B05DF804EB04B0704700BF88000020FD
:1016240010B5044600F074F90146204600F04AF86B
:101634000248012100F046F810BD00BFA4220008B2
:10164400F0B585B005460C461B4B1B6813F0010F23
:1016540001D108462DE0194B1B6883B9184B01933F
:10166400042302930323039301AF01263046394632
:10167400ABBE0646B6F1FF3F13D0104B1E600F4BB6
:101684001B6801930295039401AE05252846314653
:10169400ABBE0546B5F1FF3F06D0AC4207D0601B98
:1016A40007E04FF0FF3004E04FF0FF3001E04FF06F
:1016B400FF3005B0F0BD00BFF0ED00E008010020F0
:1016C400D422000808B5FFF7BBFF08BD0C4B1A680D
:1016D40042F001021A60002199601A6822F08472B3
:1016E40022F480321A60074A5A601A6822F480226F
:1016F4001A60D9604FF00062034B9A60704700BFD4
:10170400003802401030002400ED00E00A4B1A6853
:101714000A4BA3FB02139B09013BB3F1807F09D25F
:10172400074A5360F021074B83F82310002393608A
:1017340007231360704700BF0C000020D34D6210D4
:1017440010E000E000ED00E0034B18601A46136857
:10175400002BFCD1704700BF18010020034B1B680D
:101764001BB1024B1A68013A1A6070471801002035
:1017740008B5FFF7F3FF08BD08B502680B4B9A42A2
:1017840012D103F5FA331A6C42F400321A64084990
:101794000C230B6002234B6000238B60CB60072378
:1017A4000B610448FEF7E4FD08BD00BF004400409F
:1017B4005C0100200000024008B50A4B1A6B42F09D
:1017C40001021A630848A3F5FA3303604FF4E133C6
:1017D400436000238360C36003610C234361FFF70C
:1017E400E1FD08BD003802401C010020F8B50146A7
:1017F400084F012641F2883506E04C1C3846324633
:101804002B46FFF735FE21460C78002CF5D100203D
:10181400F8BD00BF1C01002010B592B0174B1A6C24
:1018240042F080521A64A3F5E4331A6842F4404249
:101834001A60012301930293022407944FF4800356
:101844000893082309934FF4A8730A930B9407236E
:101854000C9301A8FEF752FF0F230D930E9400235F
:101864000F934FF4A05310934FF4805311930DA88A
:101874000521FFF7FBF912B010BD00BF003802408C
:1018840008B5FFF723FFFEF71DFDFFF7C5FF08BDF1
:10189400F8B51648FFF7C4FE1548164B1968FFF74C
:1018A400A5FEFFF789FF1448FFF7A0FFFFF72EFFFF
:1018B4000024124E4FF48055114F30462946012220
:1018C400FEF7DCFE40F29A20FFF73EFF3046294641
:1018D4000022FEF7D3FE4FF4A770FFF735FF013463
:1018E40038462146FFF782FEE7E700BFD82200080A
:1018F400EC2200080C00002000230008000C024029
:1019040040230008014B1868704700BF7000002096
:10191400034613F8012B002AFBD1181A013870472B
:1019240030B5141E9BB0054604DA8B2303604FF0D8
:10193400FF301CE04FF4027200910491ADF80C20CA
:1019440014BF04F1FF3121464FF6FF720291059155
:10195400ADF80E2069461A461E9B00F077F8431C2A
:10196400BCBF8B232B6014B1009B00221A701BB0E8
:1019740030BD000073B50093054B06460D46144672
:10198400186831462A462346FFF7CAFF02B070BDE5
:10199400700000202DE9F0478D68AB4281460C466B
:1019A40092461F4643D38B8913F4906F3DD026682B
:1019B4000969C1EB06086669022206EB460696FB36
:1019C400F2F608F101023A44964238BF16465B0526
:1019D4000FD5314600F026FB054698B121694246F1
:1019E40000F0B7FAA38923F4906343F08003A38142
:1019F40013E0324600F06AFB054670B94846216997
:101A040000F0CCFA0C23C9F80030A38943F040035A
:101A1400A3814FF0FF30BDE8F0872561666145443E
:101A2400C8EB06062560A6603D46AF4200D23D469F
:101A34002A462068514600F095FAA3685B1BA36010
:101A440023681D4425600020BDE8F0872DE9F0439C
:101A54009DB0074603938B891C060D4616460CD58C
:101A64000B6953B9402100F0DDFA2860286110B9F0
:101A74000C233B60C8E040236B61002309932023BF
:101A84008DF8293030238DF82A3033461C4613F85C
:101A9400012B1AB9B4EB06090FD002E0252AF5D1BF
:101AA400F8E73846294632464B46FFF773FF0130C4
:101AB40000F0A580099B4B4409932378002B00F088
:101AC4009E8000234FF0FF32049307930592069300
:101AD4008DF853301A9304F101094C464D4E217888
:101AE4003046052200F026FA09F10109049B28B1C9
:101AF400861B0120B04003430493EEE7D90644BF9C
:101B040020228DF853201A0744BF2B228DF853202E
:101B140022782A2A02D0079B21460EE0039A111D3F
:101B240012680391002A01DB079204E0524243F059
:101B340002030792049301340AE00C46013122782F
:101B4400303A092A03D80A2000FB0323F5E7079358
:101B540023782E2B1AD163782A2B0AD1039B1A1DC2
:101B64001B680392002B04F10204B8BF4FF0FF334B
:101B74000BE0611C00230C4601312278303A092A1B
:101B840003D80A2000FB0323F5E70593224E2178AE
:101B94003046032200F0CEF930B1861B049B40206E
:101BA400B04003430493013421781C488DF8281075
:101BB4000622661C00F0BEF988B1194B33B9039BA9
:101BC400073323F007030833039314E003AB0093B4
:101BD400384604A92A46134BAFF3008007E003AB51
:101BE4000093384604A92A460E4B00F08FF8B0F152
:101BF400FF3F804603D0099B4344099345E7AB89E3
:101C04005B0601D4099801E04FF0FF301DB0BDE838
:101C1400F08300BF4E230008542300085823000813
:101C240000000000991900082DE9F84315461F46E5
:101C34008A680B69DDF820809A42A8BF13462B609E
:101C440091F8432006460C460AB101332B60236801
:101C5400990602D52B6802332B60236813F006091A
:101C64001DD094F843302268003318BF0123920634
:101C74001FD5E1185A1C302081F84300224494F8FF
:101C8400451082F84310023313E03046394604F11C
:101C940019020123C047013007D009F10109E268A4
:101CA4002B68D31A9945F0DBDBE74FF0FF30BDE832
:101CB400F8833046394604F14302C0470130F4D07A
:101CC40023682A68E16803F00603042B08BFC2EB0B
:101CD40001052369A2680CBF25EAE57500259A422F
:101CE400C4BFC3EB0203ED184FF00009A9450ADA9B
:101CF4003046394604F11A020123C0470130D4D0DA
:101D040009F10109F2E70020BDE8F8832DE9FF4756
:101D14000E7E0C9D6E2E80460C4691469A4601F12D
:101D2400430000F0A58011D8632E22D009D8002EDC
:101D340000F0AF80582E40F0BF8081F845607B4AA8
:101D44004FE0642E1ED0692E1CD0B5E0732E00F037
:101D5400A48009D86F2E2BD0702E40F0AD800B6874
:101D640043F020030B6038E0752E21D0782E34D058
:101D7400A2E02B681A1D1B682A6001F1420781F852
:101D840042309DE022682B6812F0800F03D01A1DA8
:101D94002A601D6805E05106F9D51A1D2A60B3F9B9
:101DA4000050002D39DA2D236D4284F8433034E09D
:101DB40022682B6812F0800F03D01A1D2A601D6858
:101DC40004E05206F9D51A1D2A601D88237E574A5D
:101DD4006F2B14BF0A2308231BE07823544A84F88A
:101DE40045302368296813F0800F01F104062E6042
:101DF40001D00D6802E05F06FBD50D88DE0744BF05
:101E040043F0200323601DB9236823F020032360DB
:101E14001023002184F8431001E0444A0A23666831
:101E2400A660002E03DB216821F00401216005B9BE
:101E34006EB104F14201B5FBF3F603FB16550F46F0
:101E4400555D01F801593546002EF4D100E00746EE
:101E5400082B0AD12368DD0707D5626823699A42F3
:101E640003DC302307F8013C013FC01B20612CE058
:101E740009682B68626911F0800F04D0191D29606C
:101E84001B681A6005E04906F8D5191D29601B680E
:101E94001A8000232361074617E02B681A1D2A6065
:101EA4001F683846FFF734FD63682061984288BF95
:101EB40023612369636005E004F1420784F842600A
:101EC40001232361002384F84330CDF800A0404669
:101ED400214603AA4B46FFF7A7FE013002D14FF07B
:101EE400FF301FE0404649463A462369D047013057
:101EF400F5D023689B0705D4E068039B9842B8BFDC
:101F040018460FE00025E268039BD31A9D42F3DADA
:101F14004046494604F119020123D0470130DED07E
:101F24000135F0E704B0BDE8F08700BF5F23000887
:101F34007023000810B5C9B202449042034606D08B
:101F44001C788C4200F10100F7D1184610BD002026
:101F540010BD10B50023934203D0CC5CC4540133AC
:101F6400F9E710BD814270B501D300230EE08C184F
:101F7400A042FAD28518134613F1FF3305D3514218
:101F840066182944F65CCE54F6E770BD934203D03C
:101F9400CC5CC4540133F9E770BD000030B50029AE
:101FA4003CD051F8042C0B1F1D49002AB8BF9B18C4
:101FB4000A680C4612B95A600B6030BD93420DD2C8
:101FC40019685818904203D15A581144426819604C
:101FD4005A60236030BD994203D80A4651680029EB
:101FE400F9D1146815199D420AD11B682344D018ED
:101FF4008842136012D10868034413604B680CE0F4
:1020040002D90C23036030BD18681C188C4203D11C
:102014000C684968204418605960536030BD00BFA3
:102024001001002070B5CD1C25F0030508350C2DDA
:1020340038BF0C25002D06463FDB8D423DD3214B96
:102044001C6818462146A1B10B685B1B0ED40B2BF0
:1020540003D90B60CC18CD501FE08C4202D16268CA
:1020640002601AE04B6863600C4616E00C4649684F
:10207400E9E7154C23681BB9304600F04DF82060A1
:102084002946304600F048F8431C014615D0C41CCC
:1020940024F0030484420AD1256004F10B00231DBB
:1020A40020F00700C31A0BD05A42E25070BD3046EC
:1020B400611A00F031F80130EED10C2333600020B6
:1020C40070BD00BF100100200C010020F8B50646C9
:1020D40014460D4621B91146BDE8F840FFF7A2BFEA
:1020E4001AB9FFF75BFF2046F8BD00F025F8A042BF
:1020F4000ED230462146FFF795FF074650B12946D8
:102104002246FFF726FF30462946FFF747FF01E046
:102114002846F8BD3846F8BD38B5064C00230546B8
:1021240008462360FFF72CFA431C02D1236803B14D
:102134002B6038BD1401002051F8040C002802DA89
:1021440004390B5818440438704700002E2E2F739E
:10215400797374656D2F7372632F73746D33326684
:10216400342D68616C2F73746D3332663478785F04
:1021740068616C5F636F727465782E6300000000A1
:102184002E2E2F73797374656D2F7372632F73748E
:102194006D333266342D68616C2F73746D3332661F
:1021A4003478785F68616C5F6770696F2E630000D4
:1021B40000000000010203040102030406070809E9
:1021C4002E2E2F73797374656D2F7372632F73744E
:1021D4006D333266342D68616C2F73746D333266DF
:1021E4003478785F68616C5F7263632E630000000B
:1021F4002E2E2F73797374656D2F7372632F73741E
:102204006D333266342D68616C2F73746D333266AE
:102214003478785F68616C5F756172742E63000056
:1022240061626F727428292C2065786974696E67FD
:102234002E2E2E002C2066756E6374696F6E3A2004
:1022440000000000617373657274696F6E2022254B
:102254007322206661696C65643A2066696C652046
:10226400222573222C206C696E6520256425732534
:10227400730A00006173736572745F706172616DDB
:102284002829206661696C65643A2066696C65205A
:10229400222573222C206C696E652025640A0000B7
:1022A4000A0000006D61696E28617267633D2564F0
:1022B4002C20617267763D5B000000002C2000003A
:1022C40022257322000000005D293B0A0000000063
:1022D4003A74740048656C6C6F2041524D20576FFE
:1022E400726C64210000000053797374656D20637F
:1022F4006C6F636B3A202575487A0A004D6575202A
:10230400546578746F0D0A456C652073657261209D
:102314006D7569746F2067726164650D0A506F6929
:1023240073206520657370656369616C21210D0AF2
:102334004F6272696761646F0D0A00005365636FD1
:102344006E642025750A00004300232D302B2000E5
:10235400686C4C006566674546470030313233345B
:1023640035363738394142434445460030313233FB
:0D23740034353637383961626364656600C0
:102384007856341284000020000000000024F40079
:102394000000000000000000000000000000000039
:1023A4000000000000000000000000000000000029
:1023B4004C230008000000000000000000000000A2
:1023C4000000000000000000000000000000000009
:1023D40000000000000000000000000000000000F9
:1023E40000000000000000000000000000000000E9
:0823F40010000020325476981D
:040000050800018965
:00000001FF
