:020000040800F2
:1000000000000220950200089D020008A1020008DD
:10001000A5020008A9020008AD02000800000000C7
:10002000000000000000000000000000B102000815
:10003000B502000800000000B90200082D180008F1
:10004000C1020008C1020008C1020008C102000884
:10005000C1020008C1020008C1020008C102000874
:10006000C1020008C1020008C1020008C102000864
:10007000C1020008C1020008C1020008C102000854
:10008000C1020008C1020008C1020008C102000844
:10009000C1020008C1020008C1020008C102000834
:1000A000C1020008C1020008C1020008C102000824
:1000B000C1020008C1020008C1020008C102000814
:1000C000C1020008C1020008C1020008C102000804
:1000D000C1020008C1020008C1020008C1020008F4
:1000E000C1020008C1020008C1020008C1020008E4
:1000F000C1020008C1020008C1020008C1020008D4
:10010000C1020008C1020008C1020008C1020008C3
:10011000C1020008C1020008C1020008C1020008B3
:10012000C1020008C1020008C1020008C1020008A3
:10013000C1020008C1020008C1020008C102000893
:10014000C1020008C1020008C1020008C102000883
:10015000C1020008C1020008C1020008C102000873
:10016000C1020008C1020008C1020008C102000863
:10017000C1020008C1020008C1020008000000001E
:10018000C1020008C102000800B583B0304B314AFB
:100190001360314A1360314B3149002201E01A608B
:1001A00004338B42FBD32B4B1B6813B92A4B1B68C0
:1001B00003B1FEE7264B2B4A13602B4A13602B4BEF
:1001C0002B4A2C4803E0116819600433043283423F
:1001D000F9D3244B1A68284B9A4204D1224B1A684F
:1001E0001B689A4200D0FEE701F092FB01A8694625
:1001F00001F006FA214B224EF61AB61000241D46D5
:1002000003E055F8243098470134A642F9DC1D4B31
:100210001D4EF61AB61000241D4603E055F8243092
:1002200098470134A642F9DC0198009901F078FB67
:100230000546164B164CE41AA4101E4603E0013C7A
:1002400056F824309847002CF9DC284601F08EF946
:10025000BABADECA7C000020700100207C000020B9
:100260007401002000000020780000200000002021
:10027000C43900087C00002078563412C4020008FB
:10028000C4020008C4020008C4020008C402000836
:10029000C402000808B5FFF777FF00BFFEE700BF04
:1002A000FEE700BFFEE700BFFEE700BFFEE700BFBE
:1002B000FEE700BFFEE700BFFEE700BFFEE700BFAE
:0402C000FEE700BF96
:1002C400704700BF08B50C4B1A6842F400721A60FC
:1002D4001A6842F480621A601A6842F480721A60E2
:1002E4004FF47A5000F02EF8032000F00DF8FFF7D9
:1002F400E7FF002008BD00BF003C0240014B186826
:10030400704700BF8000002010B50446C31E042BB4
:1003140003D90A48BA2101F0B9F904F00704084BDB
:10032400D86820F4E0600004000C40EA042040F0A7
:10033400BF6040F40030D86010BD00BF1036000824
:1003440000ED00E00138B0F1807F0AD2064B58601E
:10035400F021064A82F823100020986007221A60D0
:1003640070470120704700BF10E000E000ED00E09E
:100374002DE9F84F05460E460B681BB99748C32173
:1003840001F084F97368012B22D9112B20D0022BA0
:100394001ED0122B1CD0924A934219D002F580121F
:1003A400934215D002F58012934211D0A2F5F812AF
:1003B40093420DD002F58012934209D002F58012C7
:1003C400934205D0032B03D08448C42101F05EF985
:1003D400B368022B03D98148C52101F057F90024E1
:1003E40042E1A1460127A740336803EA0708B8455C
:1003F40040F039817368022B01D0122B51D133693B
:10040400C3B3092B36D0ABB3A3B39BB393B3012BC4
:1004140030D02FD0022B2DD02CD02BD0032B29D091
:10042400042B27D026D025D0052B23D022D0092B6E
:1004340020D0062B1ED0092B1CD0072B1AD019D084
:1004440018D0082B16D015D014D0092B12D011D0E7
:100454000A2B0FD00ED00B2B0CD00C2B0AD009D0AA
:100464000D2B07D00C2B05D00F2B03D05B48D621C6
:1004740001F00CF9336904F00702920003FA02F167
:10048400E308083355F823004FF00F0C0CFA02F27E
:1004940020EA020245F8232055F823200A4345F8B0
:1004A40023202B684FEA440A4FF0030B0BFA0AFB94
:1004B4006FEA0B0B03EA0B032B602A68736803F0E3
:1004C400030303FA0AF313432B6073685A1E012AC9
:1004D40003D9112B01D0122B1DD1F368032B03D99F
:1004E4003E48E62101F0D2F8AB680BEA0303AB60A7
:1004F400AA68F36803FA0AF31343AB606B6823EA50
:1005040007076F606A687368C3F3001303FA09F995
:1005140042EA09036B60EB680BEA0303EB60EA68E9
:10052400B36803FA0AF31343EB60736813F0805F54
:1005340000F099802B4B5A6C42F480425A6404F0C8
:10054400030080004FF00F0C0CFA00FCA108A3F587
:1005540080338A1C53F8227027EA0C0743F8227070
:1005640053F82230204A954240D002F580629542E9
:1005740031D002F5806295422BD002F5806295421B
:1005840025D002F5806295421FD002F58062954223
:1005940019D002F58062954213D002F5806295422B
:1005A4000DD002F58062954207D002F58062954233
:1005B40001D109221BE00A2219E0082217E00722D0
:1005C40015E0062213E0052211E004220FE00322C5
:1005D4000DE002220BE0012209E000BF44360008CE
:1005E400000011100038024000000240002202FA0C
:1005F40000F0184302311F4B43F8210003F58063D8
:1006040019686FEA0802114019605968114059606D
:10061400736813F4803F04D0174B196841EA08014A
:100624001960736813F4003F04D0134B596841EA0E
:1006340008015960104B996811409960D9680A40C3
:10064400DA60736813F4801F04D00B4B9A6842EA93
:1006540008029A60736813F4001F04D0064BDA682A
:1006640042EA0802DA6001340F2C7FF6BAAEBDE824
:10067400F88F00BF00380140003C014070B50646C9
:100684000C4615464B1E9BB2012B28D9042926D0B3
:10069400082924D0102922D0202920D040291ED076
:1006A40080291CD0B1F5807F19D0B1F5007F16D018
:1006B400B1F5806F13D0B1F5006F10D0B1F5805F44
:1006C4000DD0B1F5005F0AD0B1F5804F07D0B1F578
:1006D400004F04D008484FF4CB7100F0D7FF012D30
:1006E40004D9054840F2971100F0D0FF0DB13483CE
:1006F40070BD748370BD00BF4436000870B50446F5
:1007040003680F2B04D9AB484FF49D7100F0BEFF72
:10071400236813F0010F5ED06368012B06D9052B03
:1007240004D0A44840F23F1100F0B0FFA24B9B68F4
:1007340003F00C03042B0AD09F4B9B6803F00C03BB
:10074400082B0ED19C4B5B6813F4800F09D09A4B95
:100754001B6813F4003F3ED06368012B40F0E8812E
:1007640039E00022954B1A70FFF7C8FD00F59C553F
:100774000835914E04E0FFF7C1FDA84280F0DA810C
:10078400336813F4003FF6D122798C4B1A706368F6
:10079400012B10D1FFF7B2FD00F59C550835864EAC
:1007A40004E0FFF7ABFDA84280F0C681336813F480
:1007B400003FF6D00FE0FFF7A1FD00F59C5508358A
:1007C4007D4E04E0FFF79AFDA84280F0B7813368BC
:1007D40013F4003FF6D1236813F0020F5ED0E368F0
:1007E400012B04D9734840F27F1100F04FFF2369B5
:1007F4001F2B04D96F484FF4C07100F047FF6E4BB4
:100804009B6813F00C0F0AD06B4B9B6803F00C032E
:10081400082B0ED1684B5B6813F4800F09D1664B2B
:100824001B6813F0020F39D0E368012B40F0888174
:1008340034E0E36803B30122614B1A60FFF75EFD05
:1008440000F164065C4D04E0FFF758FDB04280F00F
:1008540079812B6813F0020FF6D0574B196821F0F9
:10086400F8012269F82090FAA0F0B0FA80F0C0B242
:1008740082400A431A6011E00022514B1A60FFF7CC
:100884003DFD00F164064C4D04E0FFF737FDB04236
:1008940080F05A812B6813F0020FF6D1236813F00D
:1008A400080F2ED06369012B04D942484FF4DC7140
:1008B40000F0ECFE636993B10122424B1A60FFF72A
:1008C4001DFD00F164063C4D04E0FFF717FDB04246
:1008D40080F03C816B6F13F0020FF6D011E0002220
:1008E400384B1A60FFF70AFD00F16406324D04E04C
:1008F400FFF704FDB04280F02B816B6F13F0020F01
:10090400F6D1236813F0040F6BD0A368012B06D92A
:10091400052B04D027484FF4F17100F0B7FE264BA5
:100924001A6C42F080521A64A3F5E4331A6842F454
:1009340080721A60FFF7E2FC00F16406224D04E0C5
:10094400FFF7DCFCB04280F005812B6813F4807F54
:10095400F6D000221D4B1A70FFF7D0FC00F59C5511
:100964000835154E04E0FFF7C9FCA84280F0F48076
:10097400336F13F0020FF6D1227A144B1A70A36866
:10098400012B10D1FFF7BAFC00F59C5508350A4E2F
:1009940004E0FFF7B3FCA84280F0E080336F13F06B
:1009A400020FF6D01DE0FFF7A9FC00F59C550835B1
:1009B400014E12E08436000800380240023802403A
:1009C40000004742800E47420070004070380240E9
:1009D400FFF794FCA84280F0C380336F13F0020F3A
:1009E400F6D1A369022B04D9634840F2262100F012
:1009F4004DFEA369002B00F0B580604A926802F0B6
:100A04000C02082A00F0B080022B7ED1E3693BB1CE
:100A1400B3F5800F04D0584840F22F2100F036FE81
:100A2400236A3F2B04D954484FF40C7100F02EFE76
:100A3400636AC03BF02B04D94F4840F2312100F0E7
:100A440025FEA36A022B0AD0042B08D0062B06D05D
:100A5400082B04D0484840F2322100F017FEE36A24
:100A6400043B0B2B04D9444840F2332100F00EFE22
:100A74000022434B1A60FFF741FC00F164063F4D2E
:100A840003E0FFF73BFCB04270D22B6813F0007F09
:100A9400F7D1236A626A47F6C07191FAA1F1B1FAFB
:100AA40081F1C9B28A4043EA0201A36A5B085A1E73
:100AB4004FF4403393FAA3F3B3FA83F3DBB29A40CF
:100AC4000A43E3691343E16A4FF0706292FAA2F2B7
:100AD400B2FA82F2D2B201FA02F21A4342F000529E
:100AE400264B5A600122264B1A60FFF707FC00F1DF
:100AF4006405224C03E0FFF701FCA84238D22368C6
:100B040013F0007FF7D0002070BD00221C4B1A6048
:100B1400FFF7F4FB00F16405184C03E0FFF7EEFB6C
:100B2400A84227D2236813F0007FF7D1002070BDBC
:100B3400012070BD032070BD032070BD032070BD73
:100B4400012070BD032070BD032070BD032070BD63
:100B5400032070BD032070BD032070BD032070BD51
:100B6400032070BD002070BD012070BD032070BD46
:100B7400032070BD032070BD843600080038024095
:100B840060004742284B9B6803F00C03042B49D0B8
:100B9400082B01D025487047234B586800F03F00CC
:100BA4005A6802F480024FF4800393FAA3F3B3FA71
:100BB40083F3DBB232FA03F311D01D4BB3FBF0F035
:100BC400194B5A6847F6C0731A4093FAA3F3B3FA61
:100BD40083F3DBB222FA03F303FB00F010E0134BC0
:100BE400B3FBF0F0104B5A6847F6C0731A4093FAFF
:100BF400A3F3B3FA83F3DBB222FA03F303FB00F0AB
:100C0400094B5A6802F440324FF4403393FAA3F389
:100C1400B3FA83F3DBB222FA03F301335B00B0FBD4
:100C2400F3F0704702487047003802400024F40093
:100C340000127A0008B5FFF7A5FF094B9A6802F085
:100C4400F002F02393FAA3F3B3FA83F3DBB222FAAC
:100C540003F3044AD35CD840034B186008BD00BFBB
:100C640000380240743600080C000020F8B5044631
:100C74000D460368013B0E2B04D9AC4840F2962183
:100C840000F004FD072D04D9A84840F2972100F094
:100C9400FDFCA74B1B6803F00F03AB4261D2EAB221
:100CA400A34B1A701B6803F00F03AB4240F02D8175
:100CB400236813F0010F00F0B4806368022B04D999
:100CC4009A4840F2AD2100F0E1FC6368012B05D1A4
:100CD400984A126812F4003F0ED118E1022B05D194
:100CE400944A126812F0007F06D112E1914A126808
:100CF40012F0020F00F00F818E4A916821F0030177
:100D04000B439360FFF7FAFA00F59C5508356368C6
:100D1400012B0CD104E0FFF7F1FAA84201D3FCE067
:100D2400844EB36803F00C03042BF4D179E0022B56
:100D340011D104E0FFF7E2FAA84201D3EFE07D4EBF
:100D4400B36803F00C03082BF4D16AE0FFF7D6FA7A
:100D5400A84201D3E5E0774EB36813F00C0FF5D148
:100D64005FE0236813F0010F52D06368022B04D9AB
:100D74006E4840F2F52100F089FC6368012B05D12F
:100D84006C4A126812F4003F0ED1CCE0022B05D15C
:100D9400684A126812F0007F06D1D3E0654A1268EF
:100DA40012F0020F00F0D080624A916821F0030132
:100DB4000B439360FFF7A2FA00F59C56083663686C
:100DC400012B0CD104E0FFF799FAB04201D3BDE046
:100DD400584FBB6803F00C03042BF4D118E0022B2A
:100DE40011D104E0FFF78AFAB04201D3B0E0514FC9
:100DF400BB6803F00C03082BF4D109E0FFF77EFA7B
:100E0400B04201D3A6E04B4FBB6813F00C0FF5D1F1
:100E1400EAB2474B1A701B6803F00F03AB4240F071
:100E24009B80236813F0020F1DD0A368A3B1802B0D
:100E340012D0902B10D0A02B0ED0B02B0CD0C02BE6
:100E44000AD0D02B08D0E02B06D0F02B04D03748A2
:100E540040F2453100F01AFC364B996821F0F0015C
:100E6400A2680A439A60236813F0040F19D0E36858
:100E740083B1B3F5805F0DD0B3F5A05F0AD0B3F5AD
:100E8400C05F07D0B3F5E05F04D028484FF4537136
:100E940000F0FCFB274B996821F4E051E2680A4317
:100EA4009A60236813F0080F1AD0236983B1B3F54D
:100EB400805F0DD0B3F5A05F0AD0B3F5C05F07D053
:100EC400B3F5E05F04D0194840F2533100F0DEFB83
:100ED400184B9A6822F46042216942EAC1029A607E
:100EE400FFF7A8FE144BA3FB00239B09013BB3F1BE
:100EF400807F33D2114A5360F021114B83F82310C1
:100F04000020906007231360F8BD0120F8BD012084
:100F1400F8BD0120F8BD0120F8BD0320F8BD032071
:100F2400F8BD0320F8BD0120F8BD00BF84360008D9
:100F3400003C024000380240D34D621010E000E053
:100F440000ED00E00120F8BD0120F8BD0320F8BD4C
:100F54000320F8BD0320F8BD0120F8BD0020F8BD32
:100F640008B5FFF767FE084B9A6802F4E0524FF4A5
:100F7400E05393FAA3F3B3FA83F3DBB222FA03F355
:100F8400024AD35CD84008BD0038024074360008D9
:100F940008B5FFF74FFE084B9A6802F460424FF41D
:100FA400604393FAA3F3B3FA83F3DBB222FA03F3B5
:100FB400024AD35CD84008BD0038024074360008A9
:100FC4002DE9F04104460368BF4A934218D0A2F5C4
:100FD4004C42934214D002F58062934210D002F541
:100FE400806293420CD002F58062934208D002F5ED
:100FF4004442934204D0B54840F2147100F046FBD9
:101004006368B34A934204D9B04840F2157100F0C2
:101014003DFBA3683BB1B3F5805F04D0AB4840F21D
:10102400167100F033FBE3683BB1B3F5005F04D005
:10103400A64840F2177100F029FB236953B1B3F5B8
:10104400806F07D0B3F5C06F04D0A0484FF4E361BC
:1010540000F01CFB63694FF6F372134200D123B90D
:101064009A4840F2197100F011FBA3696BB1B3F512
:10107400807F0AD0B3F5007F07D0B3F5407F04D05A
:10108400924840F21A7100F001FBA369A3B12368EE
:101094008D4A934210D0A2F54C4293420CD002F5F3
:1010A4008062934208D002F54C42934204D08748B0
:1010B40040F21F7100F0EAFA2368196921F44051E3
:1010C400E2680A431A612268D36823F4164323F0C2
:1010D4000C03A0682169084361690843E16901437D
:1010E4000B43D3602368596921F44071A2690A4310
:1010F4005A61E369B3F5004F74D1256803F1804365
:1011040003F510439D4203D003F580639D4234D11F
:10111400FFF73EFF00EB800000EB800063685B009C
:10112400B0FBF3F76B4EA6FB07277F093F01FFF7E0
:101134002FFF00EB800000EB800063685B00B0FBD6
:10114400F3F8FFF725FF00EB800000EB80006368F5
:101154005B00B0FBF3F3A6FB03235B09642202FBF1
:1011640013884FEA081808F13208A6FB0836C6F3BC
:1011740043163743AF60BDE8F081FFF7F1FE00EBA3
:10118400800000EB800063685B00B0FBF3F7514E16
:10119400A6FB07277F093F01FFF7E2FE00EB800073
:1011A40000EB800063685B00B0FBF3F8FFF7D8FE48
:1011B40000EB800000EB800063685B00B0FBF3F39E
:1011C400A6FB03235B09642202FB13884FEA081879
:1011D40008F13208A6FB0836C6F343163743AF605E
:1011E400BDE8F0812568384B9D4203D003F5806348
:1011F4009D4234D1FFF7CCFE00EB800000EB800071
:1012040063689B00B0FBF3F7324EA6FB07277F0908
:101214003F01FFF7BDFE00EB800000EB8000636838
:101224009B00B0FBF3F8FFF7B3FE00EB800000EB8C
:10123400800063689B00B0FBF3F3A6FB03235B0908
:10124400642202FB13884FEA081808F13208A6FB4F
:101254000836C6F343163743AF60BDE8F081FFF7A5
:101264007FFE00EB800000EB800063689B00B0FB16
:10127400F3F7184EA6FB07277F093F01FFF770FE1F
:1012840000EB800000EB800063689B00B0FBF3F888
:10129400FFF766FE00EB800000EB800063689B00B4
:1012A400B0FBF3F0A6FB00304009642303FB108875
:1012B4004FEA081808F13208A6FB0826C6F34316BD
:1012C4003743AF60BDE8F08100100140B436000838
:1012D400A037A0001F85EB512DE9F04105460C46CF
:1012E40090461E46FFF70AF88719B8F1000F24D07C
:1012F4004FE0B6F1FF3F20D0FFF700F8B8421CD30F
:101304002B68DA6822F08002DA602B68DA6822F04F
:101314002002DA602B68DA6822F48072DA602B68C3
:101324005A6922F001025A61012385F839300023F9
:1013340085F838300320BDE8F0812B681B68234012
:10134400A342D6D10020BDE8F081B6F1FF3F20D002
:10135400FEF7D4FFB8421CD32B68DA6822F080026F
:10136400DA602B68DA6822F02002DA602B68DA6827
:1013740022F48072DA602B685A6922F001025A6101
:10138400012385F83930002385F838300320BDE87F
:10139400F0812B681B682340A342D6D00020BDE80F
:1013A400F08100BF10B5044600285BD08369A3B167
:1013B40003682D4A93422CD0A2F54C42934228D084
:1013C40002F58062934224D002F54C42934220D02D
:1013D4002648F92100F05AF91BE00368224A934297
:1013E40017D0A2F54C42934213D002F58062934287
:1013F4000FD002F5806293420BD002F580629342D3
:1014040007D002F54442934203D01848FE2100F06D
:101414003DF994F8393013F0FF0F02D1204600F063
:1014240007FA022384F839302368DA6822F4005278
:10143400DA602046FFF7C4FD23681A6922F490425B
:101444001A6123685A6922F02A025A612368DA6809
:1014540042F40052DA60002084F83A00012384F850
:10146400393010BD012010BD00100140B436000811
:101474002DE9F04104460D461E4690F83930DBB2A2
:10148400012B01D0222B5ED1002D5ED0002A5ED02C
:1014940094F83830012B5CD0012384F838300023D1
:1014A40084F83A3094F83930DBB2222B03D132235A
:1014B40084F8393002E0122384F83930A284E284BB
:1014C4004FF08008002723E00138E084A068B0F5DD
:1014D400805F12D1204641463A463346FFF7FCFE70
:1014E400002838D123682A88C2F308025A60236985
:1014F4000BB902350CE001350AE0204641463A4674
:101504003346FFF7E9FE40BB23682A785A60013569
:10151400E08C0028D8D12046402100223346FFF732
:10152400DBFE0346D8B994F83920D2B2322A03D16B
:10153400222284F8392002E0012284F83920002292
:1015440084F838200CE002230AE0012308E0012398
:1015540006E0022304E0032302E0032300E0032364
:101564001846BDE8F08100BFFEE700BF08B5034898
:1015740000F0B2F80120FFF7F7FF00BFE4360008DF
:1015840038B550B10FE0236813F0200FFBD0636827
:101594000B7001300135013102E000200546054C95
:1015A4009542F0DB38BD00F0FFF9092303604FF0EA
:1015B400FF3038BD0044004008B50D4B1B6813B91B
:1015C4000C4A0B4B1A600A4B1B68033020F00300D3
:1015D4001844094A904206D900F0E6F90C23036046
:1015E4004FF0FF3008BD024A1060184608BD00BF26
:1015F400840000207401002000FC0120012303600A
:10160400014B0B60704700BF0400002008B500F0D8
:10161400CBF9582303604FF0FF3008BD08B500F044
:10162400C3F9582303604FF0FF3008BD08B500F03C
:10163400BBF958230360002008BD00BF08B500F0C3
:10164400B3F9582303604FF0FF3008BD10B51446BA
:10165400012802D0022807D00DE00B4892B24FF4C3
:10166400FA63FFF705FF0DE0074892B24FF4FA63FF
:10167400FFF7FEFE06E000F097F9092303604FF040
:10168400FF3010BD204610BD1801002008B50346E8
:101694000A460348194600F005F8FFF767FF00BF44
:1016A400383700080FB400B583B004AB53F8042BEB
:1016B40001930848802100F05DFF011E03DD054809
:1016C40000F05CF80146084603B05DF804EB04B092
:1016D400704700BF8C00002010B5044600F09AF952
:1016E4000146204600F04AF80248012100F046F87D
:1016F40010BD00BF64370008F0B585B005460C4640
:101704001B4B1B6813F0010F01D108462DE0194B48
:101714001B6883B9184B0193042302930323039397
:1017240001AF012630463946ABBE0646B6F1FF3F4F
:1017340013D0104B1E600F4B1B680193029503944A
:1017440001AE052528463146ABBE0546B5F1FF3F3F
:1017540006D0AC4207D0601B07E04FF0FF3004E036
:101764004FF0FF3001E04FF0FF3005B0F0BD00BF97
:10177400F0ED00E00C0100209437000808B5FFF7F5
:10178400BBFF08BD0C4B1A6842F001021A6000212D
:1017940099601A6822F0847222F480321A60074A2F
:1017A4005A601A6822F480221A60D9604FF00062ED
:1017B400034B9A60704700BF003802401030002489
:1017C40000ED00E00A4B1A680A4BA3FB02139B09C5
:1017D400013BB3F1807F09D2074A5360F021074BE4
:1017E40083F823100023936007231360704700BF1E
:1017F4000C000020D34D621010E000E000ED00E08A
:10180400034B18601A461368002BFCD1704700BFC5
:101814006C010020034B1B681BB1024B1A68013A90
:101824001A6070476C01002008B5FFF7F3FF08BD8C
:1018340008B502680B4B9A4212D103F5FA331A6CBD
:1018440042F400321A6408490C230B6002234B60F3
:1018540000238B60CB6007230B610448FEF788FDEF
:1018640008BD00BF004400405401002000000240B5
:1018740008B50A4B1A6B42F001021A630848A3F533
:10188400FA3303604FF4E133436000238360C360A1
:1018940003610C234361FFF785FD08BD0038024056
:1018A4001801002010B592B0174B1A6C42F0805208
:1018B4001A64A3F5E4331A6842F440421A6001231F
:1018C40001930293022407944FF48003089308239E
:1018D40009934FF4A8730A930B9407230C9301A85C
:1018E400FEF70CFF0F230D930E9400230F934FF478
:1018F400A05310934FF4805311930DA80521FFF7C3
:10190400B5F912B010BD00BF0038024008B5FFF7AA
:1019140039FFFEF7D7FCFFF7C5FF08BDF8B51A4835
:10192400FFF7DAFE19481A4B1968FFF7BBFEFFF7F9
:101934009FFF184800F03EF817480024214600F0A5
:1019440051F81648214600F035F8FFF73BFF144ED6
:101954004FF48055134F304629460122FEF78EFE80
:1019640040F29A20FFF74CFF304629460022FEF74A
:1019740085FE4FF4A770FFF743FF01343846214634
:10198400FFF790FEE7E700BF98370008AC37000880
:101994000C000020C0370008D4370008D8370008EE
:1019A400000C0240F4370008014B1868704700BF70
:1019B400700000200FB40A4B13B51C6824B1A3694E
:1019C40013B9204600F0BCFF05AB2046A168049A79
:1019D400019300F04FF802B0BDE8104004B0704726
:1019E400700000200FB40A4B13B51C6824B1A3691E
:1019F40013B9204600F0A4FF05AB20466168049AA1
:101A0400019300F00FFC02B0BDE8104004B0704731
:101A140070000020034613F8012B002AFBD1181A8A
:101A2400013870479368013B002B10B5936005DAC9
:101A34009469A34208DBCBB20A2B05D01368581C67
:101A440010601970C8B210BDBDE8104000F0A2BD0E
:101A5400F8B505460E461446D718BC4208D02846A9
:101A640014F8011B3246FFF7DDFF431CF5D100E0FB
:101A74000020F8BD2DE9F0439DB00D4617460393B1
:101A8400064618B183690BB900F05AFF734B9D42A7
:101A940001D1756808E0724B9D4201D1B56803E03D
:101AA400704B9D4208BFF568AB8918070AD52B69AE
:101AB40043B10023099320238DF8293030238DF876
:101AC4002A3038E03046294600F0B8FD0028F0D02E
:101AD4004FF0FF30BFE0039A111D12680391002AF2
:101AE40070DB0792013423782E2B7DD05E4F217852
:101AF4003846032201F016F830B1C71B049B40207E
:101B0400B840034304930134217858488DF82810D1
:101B14000622671C01F006F8002800F08A80544B66
:101B2400002B7DD1039B073323F007030833039372
:101B3400099B434409933B461C4613F8012B1AB9ED
:101B4400B4EB07090ED002E0252AF5D1F8E73046B8
:101B540029463A464B46FFF77BFF013076D0099B76
:101B64004B4409932378002B70D000234FF0FF32AD
:101B740004930793059206938DF853301A9304F156
:101B840001094C463B4F21783846052200F0CAFF34
:101B940009F10109049B28B1C71B0120B840034384
:101BA4000493EEE7D90644BF20228DF853201A0788
:101BB40044BF2B228DF8532022782A2A8BD0079BEE
:101BC400214605E0524243F002030792049389E759
:101BD4000C4601312278303A092A03D80A2000FB46
:101BE4000323F5E707937EE763782A2B0AD1039B47
:101BF4001A1D1B680392002B04F10204B8BF4FF0B6
:101C0400FF330BE0611C00230C4601312278303A8B
:101C1400092A03D80A2000FB0323F5E7059365E7A7
:101C240003AB0093304604A92A46134BAFF300805C
:101C340007E003AB0093304604A92A460E4B00F09C
:101C44008FF8B0F1FF3F80467FF472AFAB895B063B
:101C54003FF53EAF09981DB0BDE8F0836439000834
:101C640084390008A43900080E3800081238000826
:101C74000000000008380008551A00082DE9F84350
:101C840015461F468A680B69DDF820809A42A8BF72
:101C940013462B6091F8432006460C460AB10133E3
:101CA4002B602368990602D52B6802332B602368C6
:101CB40013F006091DD094F843302268003318BF8E
:101CC400012392061FD5E1185A1C302081F84300E5
:101CD400224494F8451082F84310023313E030464E
:101CE400394604F119020123C047013007D009F134
:101CF4000109E2682B68D31A9945F0DBDBE74FF062
:101D0400FF30BDE8F8833046394604F14302C0474A
:101D14000130F4D023682A68E16803F00603042B39
:101D240008BFC2EB01052369A2680CBF25EAE5756B
:101D340000259A42C4BFC3EB0203ED184FF000091B
:101D4400A9450ADA3046394604F11A020123C0478C
:101D54000130D4D009F10109F2E70020BDE8F8838D
:101D64002DE9FF470E7E0C9D6E2E80460C46914653
:101D74009A4601F1430000F0A58011D8632E22D0C9
:101D840009D8002E00F0AF80582E40F0BF8081F8B3
:101D940045607B4A4FE0642E1ED0692E1CD0B5E00E
:101DA400732E00F0A48009D86F2E2BD0702E40F033
:101DB400AD800B6843F020030B6038E0752E21D012
:101DC400782E34D0A2E02B681A1D1B682A6001F11A
:101DD400420781F842309DE022682B6812F0800FA0
:101DE40003D01A1D2A601D6805E05106F9D51A1D95
:101DF4002A60B3F90050002D39DA2D236D4284F89E
:101E0400433034E022682B6812F0800F03D01A1D8F
:101E14002A601D6804E05206F9D51A1D2A601D883F
:101E2400237E574A6F2B14BF0A2308231BE0782311
:101E3400544A84F845302368296813F0800F01F16F
:101E440004062E6001D00D6802E05F06FBD50D8804
:101E5400DE0744BF43F0200323601DB9236823F049
:101E6400200323601023002184F8431001E0444A36
:101E74000A236668A660002E03DB216821F00401B2
:101E8400216005B96EB104F14201B5FBF3F603FB21
:101E940016550F46555D01F801593546002EF4D10B
:101EA40000E00746082B0AD12368DD0707D56268DE
:101EB40023699A4203DC302307F8013C013FC01B2D
:101EC40020612CE009682B68626911F0800F04D04E
:101ED400191D29601B681A6005E04906F8D5191D0B
:101EE40029601B681A8000232361074617E02B68CA
:101EF4001A1D2A601F683846FFF78CFD636820614D
:101F0400984288BF23612369636005E004F14207B6
:101F140084F8426001232361002384F84330CDF820
:101F240000A04046214603AA4B46FFF7A7FE013016
:101F340002D14FF0FF301FE0404649463A4623693C
:101F4400D0470130F5D023689B0705D4E068039B94
:101F54009842B8BF18460FE00025E268039BD31AE5
:101F64009D42F3DA4046494604F119020123D04761
:101F74000130DED00135F0E704B0BDE8F08700BFE2
:101F8400193800082A3800082DE9F047ADF5247DFA
:101F94000DF10C0901930023469347939C4BA293A4
:101FA4009C4BCDF8209107460C469046A39398F895
:101FB4000050002D00F0248197490B682B448A4679
:101FC4005A7802F0080202F0FF03EAB16368002BBA
:101FD40010DD2368DAF8002019780A4452781507CE
:101FE4000ED5479A0132479262680133013A626022
:101FF4002360EBE7A39B3846214698470028E8D0A6
:1020040008F10106B046D2E7252D08F101064FD1AB
:102014004593439398F801302A2B03D1102343931B
:1020240008F102063178A1F13003092B354606F197
:10203400010606D8459B0A2202FB0313303B459355
:10204400F0E7DFF8DC810322404600F06BFD40B18D
:10205400C8EB0008439B012000FA08F003434393B4
:1020640035466E1C2D78672D0FD8652D78D25B2DE3
:1020740054D005D8002D00F0C580252D18D071E06E
:10208400632D57D0642D3FD06CE0702D32D007D82B
:102094006E2D55D03AD8692D64D10023449339E08C
:1020A400752D31D0782D29D0732D5BD102233FE0DB
:1020B4006368002B0DDD23681A78AA4240F0A080E3
:1020C400013362682360479B013A0133626047939E
:1020D40098E7A39B3846214698470028EBD04698BA
:1020E400002800F08F80A38913F0400F18BF4FF031
:1020F400FF3089E0439B43F020034393439B43F425
:1021040000734393102302E00A2300E008236E2D9A
:10211400449301DC03230BE0042309E031464846E1
:1021240000F09AFE439B43F0400343930646012389
:1021340049931BE0439B43F0400343930023F7E799
:10214400439AD0063FF55EAF12F0010F019A479B08
:1021540002F104010191126814BF1380136051E766
:102164000523E5E7032349930A2344936368002B7B
:1021740003DD439B590611D518E0A39B384621463D
:1021840098470028F5D0AAE7479A01324792626837
:10219400013A002A626013DD013323602368DAF810
:1021A400002019780A4452781207EDD4499B022B77
:1021B4000DDC384643A9224601AB00F05BF819E078
:1021C400A39B3846214698470028E7D087E7042B8D
:1021D40006DC384643A9224601AB00F0ABF809E01F
:1021E4000E4B002B3FF40EAF384643A9224601ABF9
:1021F400AFF30080012803D002287FF403AF6EE719
:10220400469801E04FF0FF300DF5247DBDE8F087DE
:1022140049340008312D000874000020000000003B
:102224000E3800082DE9F0410C4617461E460546B7
:1022340018B1816909B900F083FB0B4B9C4208BFBC
:102244006C6808D0094B9C4208BFAC6803D0084BAB
:102254009C4208BFEC68284621463A463346BDE80E
:10226400F041FFF791BE00BF6439000884390008CB
:10227400A43900082DE9F04115468A6880460C46C9
:1022840032B98A69002A14BF4FF0FF3201228A60F2
:102294002268D10603D41A68111D19601768002634
:1022A400A069E0B92368DA0606F1010603D42B68B5
:1022B4001B783B7001372A686B6801322A60A26878
:1022C400013B013A6B60A26012B3002BE8DCD4F846
:1022D40080314046294698470028E1D018E001287B
:1022E40007D12A6811786269525C002ADAD1EEB10A
:1022F4000EE0022801D04EB10AE02A680C49127897
:1023040009680A4452781307CCD5F4E701280DD0A4
:10231400236813F0100305D1E2680132E260A26978
:1023240002B13B7023691E4426610020BDE8F081A0
:10233400740000202DE9F04F984689B0744B0C4688
:1023440005A902918146164693E80700029B83E89B
:102354000700A3696F4A7049032B08BF1146A3689D
:1023640003915A1EB2F5AE7F07D96FF4AE7503EB35
:10237400050A40F25D13A36001E04FF0000A2368F0
:1023840004F11C0743F450632360BB460023326806
:1023940005A951F8230011780193022200F0C2FB31
:1023A400019B002835D0012B0BD162682AB9082281
:1023B4006260226842F400722260226822F4A06201
:1023C4000BE0022B0AD1226802F4C061B1F5007F50
:1023D4001FD11021616042F480722260A268511EF4
:1023E400A160B2B13268511C316012788BF80020C0
:1023F4007268013A002A0BF10105726008DC01934E
:10240400D4F88021484631469047019B002840D1AA
:10241400AB460133032BBAD163680BB90A2363605B
:1024240063683E496069C91A00F016FD5D464FF0C5
:10243400000BA368002B2ED0326860691178405CD1
:1024440048B3302921680BD1080509D50BF1010BDC
:10245400BAF1000F0AD001330AF1FF3AA36005E094
:1024640021F41061216013782B7001357368013BEE
:10247400002B736003DD33680133336005E0D4F867
:10248400803148463146984728B9A368013BA36088
:10249400CFE74FF0000B2368D9050DD5BD4209D90C
:1024A40015F8011CD4F87C3148463246984705F1AA
:1024B400FF3A5546BD4226D0226812F010021BD1C5
:1024C4002A706368039E48463946B0472268D8F8A4
:1024D400003012F0200F07D1D20705D51A1DC8F815
:1024E40000201B68188004E01A1DC8F800201B682F
:1024F4001860E3680133E3602369ED1BAB445B447C
:102504002361002000E0012009B0BDE8F08F00BF86
:102514003C380008492F00084D300008583800089E
:1025240030B5141E9BB0054604DA8B2303604FF0CC
:10253400FF301CE04FF4027200910491ADF80C20BE
:1025440014BF04F1FF3121464FF6FF720291059149
:10255400ADF80E2069461A461E9B00F049FE431C46
:10256400BCBF8B232B6014B1009B00221A701BB0DC
:1025740030BD000073B50093054B06460D46144666
:10258400186831462A462346FFF7CAFF02B070BDD9
:102594007000002070B50E461446054618B18369D4
:1025A4000BB900F0CDF9224B9C4201D16C6808E0D4
:1025B400204B9C4201D1AC6803E01F4B9C4208BFF6
:1025C400EC68A369A360A3891A0709D523693BB101
:1025D40023692068C01A63699842F6B20FDB08E0E9
:1025E4002846214600F02AF80028F1D04FF0FF30A9
:1025F40070BD2846214600F013F90028F6D1A368DF
:10260400013BA36023685A1C22601E706369013079
:10261400984204D0A389DB0707D50A2E05D12846A2
:10262400214600F0FDF80028E0D1304670BD00BF1F
:102634006439000884390008A4390008324B70B5A5
:102644001D6806460C4625B1AB6913B9284600F04F
:1026540077F92E4B9C4201D16C6808E02C4B9C42CC
:1026640001D1AC6803E02B4B9C4208BFEC68A28903
:1026740093B2190720D4DD0605D4092342F04002A1
:102684003360A2813BE0580712D5616B41B104F17C
:102694004403994202D0304600F080FA0023636379
:1026A400A38923F02403A3810023636023692360A7
:1026B400A38943F00803A38123694BB9A38903F4D5
:1026C4002073B3F5007F03D03046214600F0DCF9D7
:1026D400A38913F0010205D00022A260626952426C
:1026E400A26103E0990758BF6269A26022694AB9EE
:1026F40003F0800080B230B143F04003A3814FF077
:10270400FF3070BD002070BD7000002064390008E7
:1027140084390008A43900088A892DE9F041054666
:1027240010070C4657D44B68002B02DC0B6C002BB3
:1027340018DDE66AB6B102F48052002392B22F6823
:102744002B600AB1626D10E0216A28460123B0476C
:10275400411C024609D12B683BB11D2B01D0162B1D
:1027640046D12F600020BDE8F081A3895B0705D521
:102774006368D21A636B0BB1236CD21AE66A216ABE
:1027840028460023B047461CA28905D12B681BB1FB
:102794001D2B01D0162B19D100236360D1042369AA
:1027A400236004D5421C01D12B6803B96065616BB9
:1027B4002F600029D6D004F14403994202D0284660
:1027C40000F0ECF900206063BDE8F08142F04002C3
:1027D400A281BDE8F0810E69002EC3D00B680E60A3
:1027E400C6EB030893070CBF4B6900238B6012E010
:1027F400A38943F04003A3814FF0FF30BDE8F0818B
:10280400A76A216A284632464346B8470028EFDDC6
:102814000644C0EB0808B8F1000FF1DCA2E70000A1
:1028240038B50B6905460C46DBB118B183690BB9A1
:1028340000F086F80C4B9C4201D16C6808E00B4B0D
:102844009C4201D1AC6803E0094B9C4208BFEC6890
:10285400B4F90C302BB128462146BDE83840FFF7C7
:102864005BBF002038BD00BF64390008843900080C
:10287400A4390008014620B9044B0549186800F042
:10288400E5B8044B1868FFF7CBBF00BF0438000855
:102894002528000870000020F8B5074600F1480418
:1028A40094B1A5686668013E0CD4AB89012B07D9A5
:1028B400B5F90E30013303D038462946FFF7B0FF8F
:1028C4006835F0E72468EBE7F8BD0000002310B595
:1028D400044603604360836081814366C28103616F
:1028E4004361836119465C30082200F04EF9054BC0
:1028F4006362054BA362054BE362054B24622363C9
:1029040010BD00BFC12E0008E32E00081B2F0008D5
:102914003F2F000870B54B1E68255D430E4605F138
:10292400740100F07FF9044640B1002180E84200C0
:102934000C30A06005F1680200F027F9204670BD54
:10294400836910B5044633BB8364C3640365124BC7
:10295400124A1B688262984204BF0123836100F01B
:102964001FF86060204600F01BF8A060204600F0CD
:1029740017F80421E06000226068FFF7A7FFA06851
:1029840009210122FFF7A2FFE06812210222FFF7CA
:102994009DFF0123A36110BD043800089D28000891
:1029A400F8B51B4B1E68B369074613B93046FFF7E9
:1029B400C7FF4836B4687368013B04D4B4F90C50BB
:1029C40075B16834F8E733682BB938460421FFF74A
:1029D400A1FF306008B13668ECE70C233B60F8BD1A
:1029E4004FF6FF73E3810123A38165662560A5602B
:1029F400656025616561A56104F15C0029460822D2
:102A040000F0C3F86563A563A564E5642046F8BDDA
:102A1400043800082DE9F041884600F148040026F6
:102A24008CB1A5686768013F0BD4AB89012B06D92B
:102A3400B5F90E30013302D02846C0470643683545
:102A4400F1E72468ECE73046BDE8F0812DE9F8436E
:102A54008046894600F14804002694B1A568676859
:102A6400013F0CD4AB89012B07D9B5F90E300133E2
:102A740003D040462946C84706436835F0E7246832
:102A8400EBE73046BDE8F883F0B58B899E0791B03B
:102A940005460C4626D4B1F90E10002909DAA3899B
:102AA40013F0800F4FF0000714BF40264FF48066E8
:102AB4000DE001AA00F05AFD0028F0DB029F07F4A4
:102AC4007047B7F500514F424F414FF48066284696
:102AD400314600F0A7F860B9A3899A051DD443F0E4
:102AE4000203A38104F1470323602361012363618B
:102AF40013E00B4BAB62A389206043F08003A381F6
:102B0400206166614FB12846B4F90E1000F040FD13
:102B140018B1A38943F00103A38111B0F0BD00BF34
:102B24009D28000810B5C9B202449042034606D05D
:102B34001C788C4200F10100F7D1184610BD00202A
:102B440010BD10B50023934203D0CC5CC4540133B0
:102B5400F9E710BD814270B501D300230EE08C1853
:102B6400A042FAD28518134613F1FF3305D351421C
:102B740066182944F65CCE54F6E770BD934203D040
:102B8400CC5CC4540133F9E770BD0244034693425C
:102B940002D003F8011BFAE77047000030B50029A2
:102BA4003CD051F8042C0B1F1D49002AB8BF9B18B8
:102BB4000A680C4612B95A600B6030BD93420DD2BC
:102BC40019685818904203D15A5811444268196040
:102BD4005A60236030BD994203D80A4651680029DF
:102BE400F9D1146815199D420AD11B682344D018E1
:102BF4008842136012D10868034413604B680CE0E8
:102C040002D90C23036030BD18681C188C4203D110
:102C14000C684968204418605960536030BD00BF97
:102C24001401002070B5CD1C25F0030508350C2DCA
:102C340038BF0C25002D06463FDB8D423DD3214B8A
:102C44001C6818462146A1B10B685B1B0ED40B2BE4
:102C540003D90B60CC18CD501FE08C4202D16268BE
:102C640002601AE04B6863600C4616E00C46496843
:102C7400E9E7154C23681BB9304600F0DDF8206005
:102C84002946304600F0D8F8431C014615D0C41C30
:102C940024F0030484420AD1256004F10B00231DAF
:102CA40020F00700C31A0BD05A42E25070BD3046E0
:102CB400611A00F0C1F80130EED10C23336000201A
:102CC40070BD00BF1401002010010020F8B50646B5
:102CD40014460D4621B91146BDE8F840FFF7A2BFDE
:102CE4001AB9FFF75BFF2046F8BD00F073FCA04261
:102CF4000ED230462146FFF795FF074650B12946CC
:102D04002246FFF71EFF30462946FFF747FF01E042
:102D14002846F8BD3846F8BD838903F00903092B1A
:102D240001D1FFF7A7BD002070470000F8B50C469D
:102D3400054618B183690BB9FFF702FE394B9C4273
:102D440001D16C6808E0384B9C4201D1AC6803E0C7
:102D5400364B9C4208BFEC68A2890023636093B29F
:102D64009E065AD458071AD4D90605D4092342F02A
:102D740040022B60A28150E01A070BD52846214659
:102D8400FFF74EFD002848D1A389A06023F0080373
:102D9400A381A061A38943F00403A38110E0616BC4
:102DA40071B104F14403994202D02846FFF7F6FEBC
:102DB400236C63600020606313B1E36B2360F8BD90
:102DC40023691BB928462146FFF75EFEA789BEB2D8
:102DD400B3070FD00123A381154B1649186806F0D9
:102DE4000906FFF717FE092EA78103D128462146BD
:102DF400FFF792FC22692260666A216A63692846A9
:102E0400B047002860600BDCA38917BF002243F0A1
:102E1400200343F040036260A3814FF0FF30F8BD0C
:102E24000020F8BD6439000884390008A43900087A
:102E3400043800081D2D000838B5064C002305464B
:102E440008462360FEF7B8FB431C02D1236803B194
:102E54002B6038BD68010020F0B50B785E2B02D0E2
:102E64004C1C002102E08C1C4B780121002281546F
:102E74000132B2F5807FFAD10BB9651E1CE0C1F1B5
:102E84000107FEB2C654621C12F8011C2D2902F17E
:102E9400FF35144604D05D290DD069B10B46F0E727
:102EA40015785D2DFAD09D42F8DB0133AB42C65450
:102EB400FBDB0232E8E715462846F0BD10B50C46A8
:102EC400B1F90E1000F090FB002803DB636D03449E
:102ED400636510BDA38923F48053A38110BD2DE93C
:102EE400F0411D468B89DB0507460C46164605D581
:102EF400B1F90E100022022300F05AFBA389B4F9A1
:102F04000E1023F48053A381384632462B46BDE885
:102F1400F04100F009BB10B50C46B1F90E1000F0F9
:102F240047FB431CA38903D123F48053A38110BD21
:102F340043F48053A381606510BDB1F90E1000F015
:102F440005BB000084463F482DE9F04FD0F80080CF
:102F54000E46344614F8015B08EB0500407800F097
:102F6400080000F0FF0708B12646F2E72D2D03D133
:102F7400B41C7578012703E02B2D04BF7578B41CAD
:102F840033F010000DD1302D08D1207800F0DF008F
:102F9400582851D165781023023402E0002B08BF71
:102FA4000A23002F0CBF6FF0004A4FF0004ABAFB0F
:102FB400F3F9002603FB19AA304608EB050B9BF82E
:102FC40001B01BF0040F01D0303D0BE01BF0030BEC
:102FD4001BD0BBF1010F14BF4FF0570B4FF0370B51
:102FE400CBEB05059D4210DAB6F1FF3F0AD0484508
:102FF40006D801D1554503DC03FB0050012601E04E
:103004004FF0FF3614F8015BD7E7731C0CD1002F87
:103014004FF022030CBF6FF000404FF00040CCF89B
:1030240000302AB9BDE8F08F07B1404242B106B181
:10303400611E1160BDE8F08F002B08BF0823B0E7C4
:10304400BDE8F08F7400002084463A482DE9F04F23
:10305400D0F800800E46344614F8015B08EB0500F6
:10306400407800F0080000F0FF0708B12646F2E7B8
:103074002D2D03D1B41C7578012703E02B2D04BF3B
:103084007578B41C33F010000DD1302D08D12078A0
:1030940000F0DF00582847D165781023023402E09D
:1030A400002B08BF0A234FF0FF39B9FBF3F903FBE8
:1030B40009FA00266FEA0A0A304608EB050B9BF86A
:1030C40001B01BF0040F01D0303D0BE01BF0030BEB
:1030D4001AD0BBF1010F14BF4FF0570B4FF0370B51
:1030E400CBEB05059D420FDA002E08DB484506D8D8
:1030F40001D1554503DC03FB0050012601E04FF0EC
:10310400FF3614F8015BD8E7002E05DA2223CCF849
:1031140000304FF0FF3001E007B1404242B106B148
:10312400611E1160BDE8F08F002B08BF0823BAE7C9
:10313400BDE8F08F740000202DE9F0478D68AB42A4
:1031440081460C4692461F4643D38B8913F4906FF5
:103154003DD026680969C1EB06086669022206EBC0
:10316400460696FBF2F608F101023A44964238BF4D
:1031740016465B050FD53146FFF754FD054698B159
:1031840021694246FFF7DDFCA38923F4906343F0F1
:103194008003A38113E03246FFF798FD054670B91A
:1031A40048462169FFF7FAFC0C23C9F80030A389CB
:1031B40043F04003A3814FF0FF30BDE8F087256161
:1031C40066614544C8EB06062560A6603D46AF42ED
:1031D40000D23D462A4620685146FFF7BBFCA3684F
:1031E4005B1BA36023681D4425600020BDE8F087B5
:1031F4002DE9F0439DB0074603938B891C060D46C9
:1032040016460CD50B6953B94021FFF70BFD286016
:10321400286110B90C233B60C8E040236B61002394
:10322400099320238DF8293030238DF82A30334632
:103234001C4613F8012B1AB9B4EB06090FD002E0AF
:10324400252AF5D1F8E73846294632464B46FFF79A
:1032540073FF013000F0A580099B4B440993237848
:10326400002B00F09E8000234FF0FF32049307935D
:10327400059206938DF853301A9304F101094C46D4
:103284004D4E217830460522FFF74CFC09F1010927
:10329400049B28B1861B0120B04003430493EEE74E
:1032A400D90644BF20228DF853201A0744BF2B228D
:1032B4008DF8532022782A2A02D0079B21460EE05B
:1032C400039A111D12680391002A01DB079204E09E
:1032D400524243F002030792049301340AE00C467D
:1032E40001312278303A092A03D80A2000FB03234B
:1032F400F5E7079323782E2B1AD163782A2B0AD16A
:10330400039B1A1D1B680392002B04F10204B8BF2F
:103314004FF0FF330BE0611C00230C46013122788F
:10332400303A092A03D80A2000FB0323F5E7059362
:10333400224E217830460322FFF7F4FB30B1861B7E
:10334400049B4020B04003430493013421781C487B
:103354008DF828100622661CFFF7E4FB88B1194B90
:1033640033B9039B073323F007030833039314E0B3
:1033740003AB0093384604A92A46134BAFF30080ED
:1033840007E003AB0093384604A92A460E4BFEF728
:10339400E7FCB0F1FF3F804603D0099B4344099307
:1033A40045E7AB895B0601D4099801E04FF0FF3093
:1033B4001DB0BDE8F08300BF083800080E380008CF
:1033C40012380008000000003D3100082DE9F041EA
:1033D4000C46496B04F1440399421CD14FF48061BB
:1033E400FFF720FC18B94FF0FF30BDE8F0814FF42F
:1033F4008063A36394F84630606380F8FF3394F8E5
:10340400453080F8FE3394F8443080F8FD3300F200
:10341400FD30206012E0A66B77003A46FFF756FCB9
:1034240005460028DFD000EB060840462946324610
:10343400FFF787FBC4F800806563A7630020BDE83D
:10344400F08100004B1C70B505460E46144602D1AF
:103454004FF0FF3070BD18B183690BB9FFF770FAF4
:103464002E4B9C4201D16C6808E02D4B9C4201D14B
:10347400AC6803E02B4B9C4208BFEC68A38923F0A3
:1034840020039BB2A3819BB2590713D4DA06DFD57C
:103494001B070BD528462146FFF7C2F90028D7D1D0
:1034A400A389A06023F00803A381A061A38943F04A
:1034B4000403A381636B6268F6B28BB1A36B9A4277
:1034C40007DA23685A1E226003F8016C636801332B
:1034D40020E028462146FFF779FF0028F1D0B7E71E
:1034E4002169236851B18B4208D913F8010CB04209
:1034F40004D1013B01322360626070BDE36304F1D7
:10350400440363630323A3632346226403F8466FDF
:10351400236001236360304670BD00BF6439000836
:1035240084390008A439000838B5074C0546002042
:103534002060084611461A46FEF788F8431C02D15B
:10354400236803B12B6038BD6801002038B5064CF0
:103554000023054608462360FEF758F8431C02D1B1
:10356400236803B12B6038BD6801002038B5074CCF
:1035740000230546084611462360FEF74FF8431C16
:1035840002D1236803B12B6038BD00BF680100205D
:1035940038B5064C0023054608462360FEF746F876
:1035A400431C02D1236803B12B6038BD680100209D
:1035B40038B5074C054600202060084611461A46D7
:1035C400FEF73CF8431C02D1236803B12B6038BDDD
:1035D4006801002051F8040C002802DA04390B5861
:1035E400184404387047000038B5074C05460020DD
:1035F4002060084611461A46FDF7C2FF431C02D15B
:10360400236803B12B6038BD680100202E2E2F7370
:10361400797374656D2F7372632F73746D333266AF
:10362400342D68616C2F73746D3332663478785F2F
:1036340068616C5F636F727465782E6300000000CC
:103644002E2E2F73797374656D2F7372632F7374B9
:103654006D333266342D68616C2F73746D3332664A
:103664003478785F68616C5F6770696F2E630000FF
:103674000000000001020304010203040607080914
:103684002E2E2F73797374656D2F7372632F737479
:103694006D333266342D68616C2F73746D3332660A
:1036A4003478785F68616C5F7263632E6300000036
:1036B4002E2E2F73797374656D2F7372632F737449
:1036C4006D333266342D68616C2F73746D333266DA
:1036D4003478785F68616C5F756172742E63000082
:1036E40061626F727428292C2065786974696E6729
:1036F4002E2E2E002C2066756E6374696F6E3A2030
:1037040000000000617373657274696F6E20222576
:103714007322206661696C65643A2066696C652071
:10372400222573222C206C696E652025642573255F
:10373400730A00006173736572745F706172616D06
:103744002829206661696C65643A2066696C652085
:10375400222573222C206C696E652025640A0000E2
:103764000A0000006D61696E28617267633D25641B
:103774002C20617267763D5B000000002C20000065
:1037840022257322000000005D293B0A000000008E
:103794003A74740048656C6C6F2041524D20576F29
:1037A400726C64210000000053797374656D2063AA
:1037B4006C6F636B3A202575487A0A00496E736909
:1037C400726120756D206E756D65726F3A20000010
:1037D400256400004F206E756D65726F20696E73ED
:1037E400657269646F20666F692025640D0A0000A4
:1037F4005365636F6E642025750A00004300000062
:1038040010000020232D302B2000686C4C006566CE
:10381400674546470030313233343536373839411D
:103824004243444546003031323334353637383933
:1038340061626364656600005A3800085D380008F8
:1038440060380008412D46612D66383930313233F5
:10385400343536375D002B2D0030300078580000A9
:10386400202020202020202020282828282820202C
:103874002020202020202020202020202020202044
:1038840088101010101010101010101010101010BC
:10389400040404040404040404041010101010109C
:1038A4001041414141414101010101010101010175
:1038B40001010101010101010101011010101010A9
:1038C4001042424242424202020202020202020246
:1038D400020202020202020202020210101010206E
:1038E40000000000000000000000000000000000D4
:1038F40000000000000000000000000000000000C4
:1039040000000000000000000000000000000000B3
:1039140000000000000000000000000000000000A3
:103924000000000000000000000000000000000093
:103934000000000000000000000000000000000083
:103944000000000000000000000000000000000073
:103954000000000000000000000000000000000063
:103964000000000000000000000000000000000053
:103974000000000000000000000000000000000043
:103984000000000000000000000000000000000033
:103994000000000000000000000000000000000023
:1039A4000000000000000000000000000000000013
:1039B4000000000000000000000000000000000003
:1039C4007856341288000020000000000024F4001F
:1039D400000000006439000884390008A439000894
:1039E40000000000000000000000000000000000D3
:1039F4000038000800000000000000000000000083
:103A040000000000000000000000000000000000B2
:103A140000000000000000000000000000000000A2
:103A24000000000000000000000000000000000092
:0C3A34001000002063380008325476981F
:040000050800018965
:00000001FF
